:020000040800F2
:10000000780400207D0E0008590E00085B0E0008E1
:100010005D0E00085F0E0008610E00080000000081
:10002000000000000000000000000000630E000857
:10003000650E000800000000670E0008690E000849
:10004000990E00089D0E0008A10E0008A50E0008DC
:10005000A90E0008AD0E0008B10E0008B50E00088C
:10006000B90E0008BD0E0008C10E0008C50E00083C
:10007000C90E0008CD0E0008D10E0008D50E0008EC
:10008000D90E0008DD0E0008E10E0008E50E00089C
:10009000E90E0008ED0E0008F10E0008F50E00084C
:1000A000F90E0008FD0E0008010F0008050F0008FA
:1000B000090F00080D0F0008110F0008150F0008A8
:1000C000190F00081D0F0008210F0008250F000858
:1000D000290F00082D0F0008310F0008350F000808
:1000E000390F00083D0F0008410F00082DE9F843C3
:1000F000040016D02078DFF84C64C10713D570686F
:1001000000F00C00042807D0706800F00C000828EC
:1001100041D17068C1033ED53068810303D5606862
:10012000002800F064812078DFF82874810719D551
:10013000706810F00C0F07D0706800F00C000828F1
:1001400061D17068C1035ED43068810703D520692E
:10015000012840F04C813168606921F0F80141EAE2
:10016000C00131602178080740F18180A069DFF883
:10017000E813002800F0A68001220A6000F002FACD
:100180000546706A810763D400F0FCF9401B022821
:10019000F7D903202EE16068B0F5803F04D13068C4
:1001A00040F48030306014E008B930680AE0B0F5FF
:1001B000A02F306806D140F480203060316841F4CF
:1001C000803105E020F480303060316821F48021F6
:1001D0003160606858B100F0D5F905463068810398
:1001E000A1D400F0CFF9401B6528F7D3D1E700F088
:1001F000C9F905463068810395D500F0C3F9401B65
:100200006528F7D3C5E72069A8B10121396000F05E
:10021000B9F905463068810705D400F0B3F9401BF1
:100220000228F7D9B5E73068616920F0F80040EAA4
:10023000C100306096E7386000F0A4F905463168E7
:1002400088078FD500F09EF9401B0228F7D9A0E758
:10025000DFF8F4020168C9084FF47A72B1FBF2F2D8
:10026000009200BF0098411E00280091F9D120782B
:1002700041076ED5F0690025C10009D4F06940F04E
:100280008050F0610125F06900F0805000900098E6
:10029000DFF8C882D8F80000C10520D4D8F80000E3
:1002A00040F48070C8F8000000F06CF98146D8F87E
:1002B0000000C10513D400F065F9A0EB0900652822
:1002C000F5D366E7086000F05DF90546706A8107BE
:1002D000CDD500F057F9401B0228F7D959E7E0685F
:1002E000012808D008B9306A09E00528306A06D12B
:1002F00040F004003062306A40F0010005E0400840
:1003000040003062306A20F00400306241F28938E7
:10031000E06860B100F036F98146306A810713D495
:1003200000F030F9A0EB09004045F6D331E700F0CA
:1003300029F98146306A810706D500F023F9A0EB40
:1003400009004045F6D324E71DB1F06920F0805044
:10035000F061E06900284CD0716801F00C010829B7
:1003600038D002282AD100F047F8054630688101CC
:1003700005D500F007F9401B0228F7D909E7206AE4
:10038000B0F5803F05D17168A06821F400310143C8
:1003900071607268206A616A22F4741202430A432F
:1003A0007260012000F029F804463068810120D4F1
:1003B00000F0E8F8001B0228F7D9EAE600F01CF884
:1003C00004463068810114D500F0DCF8001B0228D7
:1003D000F7D9DEE601280AD07068226A00F480317D
:1003E000914202BF00F47010616A884201D001207E
:1003F00000E00020BDE8F2830020386600F0C2B8BB
:100400002DE9F041040088464ED0554E00F077F8B3
:1004100002D200F06FF847D120684A4D810712D50B
:10042000400703D5696841F4E061696020780107FD
:1004300003D5686840F4605068606968A06821F07E
:10044000F001014369602178C80725D5606801285B
:1004500002D129688A0303E00228296802D18A01AF
:1004600002D421E08A071FD56968890840EA810023
:10047000686000F087F807466868616800F00C0063
:10048000B0EB810F08D000F07DF8C01B41F289313C
:100490008842F1D303202BE0306800F0070080454C
:1004A00004D200F027F801D0012021E02078410794
:1004B00005D56A68E06822F4E06202436A60217848
:1004C000080706D56968206921F4605141EAC00136
:1004D000696000F019F86A6822491B4BC2F30312E5
:1004E000895CC84018601A48006800F051F8002084
:1004F000BDE8F0813168C90848EAC101316030685F
:1005000000F0070040457047174910480A6802F09C
:100510000C03082B00D0704710B500BF14A4C2F321
:100520008343D203E35C08D50968584314A3C1F39D
:1005300040415A5CB0FBF2F010BD18460B494843ED
:1005400010BD0000001002407000002000127A0070
:100550006C000020000042428004424200700040D3
:1005600000200240900D00080410024000093D00E8
:1005700002030405060708090A0B0C0D0E0F1010E4
:100580000102000001484068704700BF640000207D
:1005900038B50D4D0D4B2A7804464FF47A71186822
:1005A000B1FBF2F2B0FBF2F000F049F850B9102CB8
:1005B00008D2002221464FF0FF3000F023F8AC6053
:1005C000002032BD012032BD6400002070000020F8
:1005D0000901020002D4244881547047234B02F0E1
:1005E0000F021A4402F8041C7047214B19684FF699
:1005F000FF020002114000F4E06008431D49084377
:100600001860704770B51A4B1C68C4F302230124AC
:10061000C3F10705052D2EBF0F2504FA05F56D1E44
:100620001E1D072E34BF0023DB1E2940994004FA0B
:1006300003F3BDE870405B1E1A401143C8E710B5D4
:10064000401EB0F1807F01D3012010BD0A4C6060D4
:100650000F214FF0FF30FFF7BBFF0021A160072003
:100660002060002010BD000000E400E018ED00E074
:100670000CED00E00000FA0510E000E038B50400E1
:1006800001D1012032BD0020A06204F1500568783C
:1006900020B900212970204600F063F9022068701B
:1006A00000F06AF86268A168E06823680A4321697B
:1006B000024360690A43A169024301F40071E069E1
:1006C0000A43216A0243A06A0A4302431A60A169ED
:1006D0002068090C01F0040141602068C16921F41F
:1006E0000061C161002068600121697032BD30B5D0
:1006F00000F1500400232578012D01D1022030BDE6
:100700000125257009B1150001D1012326E0657886
:10071000012D18BF022321D1032565706360016399
:100720008286C28683638387C3870364C168002986
:1007300019BF0FF2710242640FF2490141648168EE
:10074000B1F5004F04D101680A6842F480420A60A2
:1007500001684A6842F0A00200F004F8002020700E
:10076000184630BD4A60006801684A0603D4016833
:1007700041F04001016070472068016821F04001AC
:1007800001607047016B03680A781A73016B4A1C99
:100790000263C18E4A1EC286C18E002908BF00F0C6
:1007A00078B87047016B03680A88DA60016B8A1CAD
:1007B0000263C18E4A1EC286C18E002908BF00F0A6
:1007C00068B870472DE9F041069F05460E469046F1
:1007D0001C46286881683140B1420CBF01200020CE
:1007E000404531D014F1010FF3D0FFF7CBFEC01B11
:1007F000A04201D2002CECD12868416821F0E00130
:1008000041606868B0F5827F08D1A868B0F5004FF4
:1008100018BFB0F5806F01D100F019F8A86AB0F5E3
:10082000005F09D12868016821F40051016028683F
:10083000026842F40052026005F15000012141704B
:1008400000220270032000E00020BDE8F08128684B
:10085000016821F04001016070471CB500920B4611
:10086000044600228021FFF7ADFF08B100F001F837
:1008700016BD606D40F0200060650320704718B120
:10088000606D40F0200060657047BDE8164000F0E4
:10089000A5B81CB500F025F80246009818B100F084
:1008A00019F8FAD503E0606D40F02000606520681B
:1008B000416821F0A001416020466421FFF7CDFF8F
:1008C000FFF7DDFF00F01CF800D0DEE7BDE81640C2
:1008D00000F085B80098401E009021688868810764
:1008E000704704460F4801681822B1FBF2F24FF43A
:1008F0007A73B2FBF3F3642043430093FFF742BEE5
:10090000A06838B9002100912168CA6800928968FE
:1009100000910098012184F85110606D0028204654
:100920007047000070000020284881B0016841F045
:1009300001010160026802F0010200920099426820
:1009400042F080524260406800F080500090009871
:100950001F48016821F0E06141F00071016001B0C1
:10096000704718B585B0044610220021684600F093
:1009700037F821681748814226D11448164C01687F
:1009800041F480510160026802F48052049204999B
:10099000026842F004020260B021006800F0040026
:1009A0000490002204980091019202926946204628
:1009B00000F020F8402002210090019103220392D0
:1009C0006946204600F016F806B010BD1810024027
:1009D00004000140003001400008014070477047AA
:1009E00010B5044610460A460146204600F0DCF8E1
:1009F000204610BD2DE9F8474FF0000E00245D4A57
:100A00005D4BDFF878814FF00F0982460CE0D76824
:100A10003840D06006E095604D68AD02F7D5D068EB
:100A20000743D7600EF1010E0F6837FA0EF000F0A1
:100A30009F80012000FA0EF63740B742F2D1486895
:100A400038B301281AD002281DD003282ED011282F
:100A500016D012281AD04A4DA8421CBF494DA842B0
:100A600017D0494DA8421CBF484DA84211D0484D4F
:100A7000A8421CBF474DA8420BD018E0CC6816E036
:100A8000CC68241D13E0CC68083410E0CC680C342A
:100A90000DE0886808B9042409E0012819BF08247A
:100AA000CAF814600824CAF8106000E00024B7F502
:100AB000807F03D250464FEA8E0C05E0AEF1080568
:100AC0000AF104004FEA850C056809FA0CF6B543F3
:100AD00004FA0CF6354305604868C000A2D5D8F882
:100AE000000040F00100C8F80000D8F8005005F000
:100AF000010500954FEA8E0500984FEA9E0053F8D5
:100B0000206005F00C0C09FA0CF526EA0505224ECA
:100B1000B24508BF00260ED0204EB24508BF0126C0
:100B200009D01F4EB24508BF022604D01D4EB24563
:100B30000CBF0326042606FA0CF6354343F8205072
:100B4000F8434D68ED0315684CBF3D430540156003
:100B50004D68AD0355684CBF3D43054055604D6839
:100B60009668ED024CBF47EA060500EA060552E723
:100B7000BDE8F18700040140080001401810024060
:100B800000001110000012100000211000002210BF
:100B9000000031100000321000080140000C01403C
:100BA000001001400014014062F30F2262F31F4263
:100BB000401810F0030308D0C91A1FD3DB0748BF41
:100BC00000F8012D28BF20F8022D130030B4144680
:100BD0001546103928BF20E93C00FAD8490728BF3C
:100BE00020E90C0048BF40F8042D890028BF20F8F8
:100BF000022D48BF00F8012D30BC7047C91818BF3E
:100C000000F8012DCB0728BF00F8012D7047000028
:100C10001CB500F071F800F041F81D481D4C01684A
:100C200041F010010160026802F010020092009988
:100C3000026842F020020260036803F02003009380
:100C400000990268144942F0040202600022006820
:100C500000F0040000900098216062600821E161CA
:100C6000A2600A21E26022616261A2612262626284
:100C7000A262E1622046FFF701FD042204F15C015B
:100C80002046FFF734FD4FF47A7000F047F8F4E7A0
:100C900018100240000000200030014000B58FB065
:100CA0002822002105A8FFF79BFE14220021684698
:100CB000FFF796FE4FF480310022069107920D91C6
:100CC00001200590099002224FF4E0110C920E9140
:100CD00005A8FFF70BFA022101910F204FF4806164
:100CE0000090002203910292049202216846FFF7CD
:100CF00087FB0FB000BD000080B50748016841F0D8
:100D0000100101600320FFF770FC0020FFF740FC9A
:100D1000FFF70AFE002002BD0020024038B504465D
:100D2000FFF730FC14F1010F054602D004490878A2
:100D30000419FFF727FC401BA042FAD331BD00BFC6
:100D40006400002010B50E4A0E49106840F0010002
:100D5000106053680C480B405360146804401460E2
:100D6000116821F4802111604FF41F01506820F4B4
:100D7000FE00506091604FF00060044A106010BDAA
:100D8000001002400000FFF8FFFFF6FE08ED00E053
:100D9000000000000000000001020304060708092B
:100DA00030B5016884684218416802EB5103C907F5
:100DB00003D54C4401E0491C05D19A420AD012F9EE
:100DC000011B12F8015B002904F8015BF3D4491EF2
:100DD000F7D5F2E70C3030BD10B50749794418312A
:100DE000064C7C44163404E00A68081D1144884708
:100DF0000146A142F8D110BD080000001400000017
:100E0000A1FFFFFF400100003000000000000020B3
:100E100000F00DF8002801D0FFF7DEFFAFF30080EF
:100E20000020AFF30080FFF7F3FE00F002F801208E
:100E3000704700F001B800000746384600F002F89D
:100E4000FBE7000080B5AFF30080024A11001820D4
:100E5000ABBEFBE7260002007047FEE7FEE7FEE7B9
:100E6000FEE770477047704700F000B802494A68D3
:100E7000087882184A607047640000200148804763
:100E800001480047450D00088D0E0008AFF30080B3
:100E9000AFF30080FFF7BCFFFFF7FEBFFFF7FEBF19
:100EA000FFF7FEBFFFF7FEBFFFF7FEBFFFF7FEBF76
:100EB000FFF7FEBFFFF7FEBFFFF7FEBFFFF7FEBF66
:100EC000FFF7FEBFFFF7FEBFFFF7FEBFFFF7FEBF56
:100ED000FFF7FEBFFFF7FEBFFFF7FEBFFFF7FEBF46
:100EE000FFF7FEBFFFF7FEBFFFF7FEBFFFF7FEBF36
:100EF000FFF7FEBFFFF7FEBFFFF7FEBFFFF7FEBF26
:100F0000FFF7FEBFFFF7FEBFFFF7FEBFFFF7FEBF15
:100F1000FFF7FEBFFFF7FEBFFFF7FEBFFFF7FEBF05
:100F2000FFF7FEBFFFF7FEBFFFF7FEBFFFF7FEBFF5
:100F3000FFF7FEBFFFF7FEBFFFF7FEBFFFF7FEBFE5
:100F4000FFF7FEBFA800FC2004416D697420FD007E
:0C0F50000001F9000010FC000224F40075
:0400000508000E8D54
:00000001FF
