:020000040800F2
:10000000A8040020851800083D1800083F180008C3
:1000100041180008431800084518000800000000B7
:100020000000000000000000000000004718000869
:1000300049180008000000004B1800084D1800087F
:10004000A1180008A5180008A9180008AD18000894
:10005000B1180008B5180008B9180008BD18000844
:10006000C1180008C5180008C9180008CD180008F4
:10007000D1180008D5180008D9180008DD180008A4
:10008000E1180008E5180008E9180008ED18000854
:10009000F1180008F5180008F9180008FD18000804
:1000A0000119000805190008091900080D190008B0
:1000B0001119000815190008191900081D19000860
:1000C0002119000825190008291900082D19000810
:1000D0003119000835190008391900083D190008C0
:1000E00041190008451900084919000810B5040015
:1000F000002C01D101203DE0606A00280020A062B0
:1001000094F85100002805D1002084F85000200008
:1001100000F0BAFB022084F851002068006830F03B
:100120004000216808606168A0680143E0680143FD
:100130002069014360690143A06910F40070014324
:10014000E0690143206A0143A06A0143206801601D
:10015000A069000C10F00400216848602068C069A4
:1001600030F400602168C86100206065012084F8D7
:100170005100002010BD2DE9FC4706000D001700BE
:100180001C005FF0000896F85000012801D1022001
:10019000C4E0012086F8500000F0C8FB8146BA4652
:1001A00096F85100012802D002208046AEE0002DD2
:1001B00003D0380080B2002802D101208046A5E09B
:1001C000032086F85100002070653563B786F786F6
:1001D0000020B0630020B0870020F087002070640A
:1001E00000203064B068B0F5004F05D13068006879
:1001F00050F480403168086030680068400605D4DB
:100200003068006850F0400031680860F068B0F570
:10021000006F30D17068002803D0504680B20128AA
:1002200009D1306B00883168C860306B801C306346
:10023000F08E401EF086F08E00284DD03068806829
:1002400080070AD5306B00883168C860306B801C2D
:100250003063F08E401EF086EDE700F067FBB0EBF8
:100260000900A04202D314F1010F01D1002CE2D108
:10027000032080464AE07068002803D0504680B2D0
:10028000012809D1306B007831680873306B401C4D
:100290003063F08E401EF086F08E00281CD030684F
:1002A000806880070AD5306B007831680873306B3E
:1002B000401C3063F08E401EF086EDE700F036FB08
:1002C000B0EB0900A04202D314F1010F01D1002CC0
:1002D000E2D10320804619E04A462100300000F0B8
:1002E00083FA002801D020207065B068002808D16A
:1002F000002000903068C0680090306880680090EE
:100300000098706D002801D001208046012086F8F9
:100310005100002086F850004046C0B2BDE8F68784
:100320002DE9F84306000D0017001C005FF00008DF
:100330007068B0F5827F0ED1B06800280BD1042020
:1003400086F8510000943B009BB22A00290030003F
:1003500000F09EF89AE096F85000012801D10220A2
:1003600094E0012086F8500000F0E0FA814696F80B
:100370005100012802D0022080467FE0002D03D0EA
:10038000380080B2002802D10120804676E00420A7
:1003900086F8510000207065B563B787F7870020A5
:1003A00030630020B0860020F086002030640020FA
:1003B0007064B068B0F5004F05D13068006830F463
:1003C00080403168086030680068400605D43068B5
:1003D000006850F0400031680860F06800281FD1C4
:1003E000F08F00283CD030688068C0070AD530689C
:1003F000007BB16B0870B06B401CB063F08F401E87
:10040000F087EDE700F092FAB0EB0900A04202D3CA
:1004100014F1010F01D1002CE2D1032080462DE020
:10042000F08F00281CD030688068C0070AD530687B
:10043000C068B16B0880B06B801CB063F08F401E49
:10044000F087EDE700F072FAB0EB0900A04202D3AA
:1004500014F1010F01D1002CE2D1032080460DE000
:100460004A462100300000F081F9002801D0202008
:100470007065706D002801D001208046012086F84B
:100480005100002086F850004046C0B2BDE8F2831B
:100490002DE9FE4F07000D00160098460C9C5FF0FA
:1004A00001095FF0000A97F85000012801D10220ED
:1004B0000AE1012087F8500000F038FA834697F8E7
:1004C00051008DF8000078680290ADF802809DF828
:1004D000000001280DD00298B0F5827F06D1B868DF
:1004E000002803D19DF80000042802D00220824693
:1004F000E2E0002D05D0002E03D0404680B2002857
:1005000002D101208246D7E097F85100042802D09A
:10051000052087F8510000207865BE63A7F83E806B
:10052000A7F83C803D63A7F83680A7F83480002008
:1005300038640020786438680068400605D438685C
:10054000006850F0400039680860F868B0F5006F46
:100550004CD17868002803D0BDF80200012809D1E9
:10056000386B00883968C860386B801C3863F88E37
:10057000401EF886F88E002803D1F88F002800F07E
:10058000838038688068800711D5F88E00280ED0E7
:10059000B9F1010F0BD1386B00883968C860386B2E
:1005A000801C3863F88E401EF8860020814638682B
:1005B0008068C0070ED5F88F00280BD03868C06857
:1005C000B96B0880B86B801CB863F88F401EF88741
:1005D0000120814600F0AAF9B0EB0B00A042C9D37C
:1005E00014F1010FC6D00320824665E07868002828
:1005F00003D0BDF80200012809D1386B00783968B2
:100600000873386B401C3863F88E401EF886F88EED
:10061000002802D1F88F002836D03868806880071B
:1006200011D5F88E00280ED0B9F1010F0BD1386B1F
:10063000007839680873386B401C3863F88E401EA8
:10064000F8860020814638688068C0070ED5F88F8C
:1006500000280BD03868C068B96B0870B86B401CB4
:10066000B863F88F401EF8870120814600F05EF9DC
:10067000B0EB0B00A04202D314F1010F01D1002C0A
:10068000C5D10320824617E05A462100380000F009
:10069000ABF8002804D001208246202078650BE0CA
:1006A000B868002808D1002001903868C06801901F
:1006B0003868806801900198012087F85100002077
:1006C00087F850005046C0B2BDE8FE8F2DE9F041DA
:1006D00005000E0090461C00069F28688068304088
:1006E000B04201D1012000E000204146C9B2884259
:1006F00039D014F1010FF0D000F018F9C01BA0425E
:1007000001D2002CE9D12868406830F0E000296867
:1007100048606868B0F5827F0DD1A868B0F5004FD9
:1007200003D0A868B0F5806F05D12868006830F064
:10073000400029680860A86AB0F5005F0BD12868FE
:10074000006830F40050296808602868006850F498
:10075000005029680860012085F85100002085F8C4
:100760005000032000E00020BDE8F0817CB50400CB
:100770000D0016006068B0F5827F0DD1A068B0F55D
:10078000004F03D0A068B0F5806F05D120680068E5
:1007900030F04000216808606068B0F5827F12D1B7
:1007A000A068B0F5806F0ED100962B0000220121C9
:1007B0002000FFF78BFF002814D0606D50F0200060
:1007C000606503200FE000962B00002280212000AE
:1007D000FFF77CFF002805D0606D50F020006065B9
:1007E000032000E0002076BD7CB504000D0016005B
:1007F00000962B00002280212000FFF767FF0028D1
:1008000005D0606D50F020006065032000E00020FE
:1008100076BD30B4002513E050F8042BD30744BF55
:10082000A9F101039A18091F042942F8045BFAD2BE
:1008300013468C0744BF15809B1CC90748BF1D7019
:1008400050F8041B0029E7D130BC704781B0314813
:10085000016851F001010160006810F00100009092
:1008600000982D48016851F080510160006810F037
:100870008050009000982949086830F0E06050F0FE
:100880000070086001B0704730B585B004001022D8
:100890000021684600F050F820682149884236D18E
:1008A0001C48016851F480510160016811F48051C5
:1008B00004910499016851F004010160006810F08E
:1008C000040004900498A0200090022001900320CE
:1008D0000390144D6946280000F038F8102000906D
:1008E000012001906946280000F030F84FF40050D4
:1008F000009069460C4800F029F840200090002044
:100900000190002002906946280000F01FF805B011
:1009100030BD0000181002401C10024004000140CD
:10092000003001400008014000100140014800680B
:10093000704700BFA000002010B5044610460A46CC
:100940000146204600F03EF9204610BD2DE9F8474B
:1009500003005FF0000E5FF00008086830FA0EF048
:10096000002800F00081012010FA0EF00400086851
:1009700020400500A54240F0F3804868002831D0AF
:10098000012820D0022825D003283CD011281DD0D2
:10099000122823D0DFF8ECC1604523D0DFF8E8C18E
:1009A00060451FD0DFF8E4C160451BD0DFF8E0C12F
:1009B000604517D0DFF8DCC1604513D0DFF8D8C13F
:1009C00060450FD022E0C86880461FE0C868001D5F
:1009D00080461BE0C8680830804617E0C8680C30C5
:1009E000804613E08868002802D10420804609E090
:1009F0008868012803D1082080461C6102E0082095
:100A000080465C6102E000208046FFE7B5F5807F0C
:100A100001D21E0000E01E1DB5F5807F02D25FEA04
:100A20008E0702E0BEF10807BF005FF00F09D6F89D
:100A300000C019FA07F03CEA000C18FA07F050EA77
:100A40000C0CC6F800C04868C00040F189805348CB
:100A5000D0F800C05CF0010CC0F800C0006810F0D5
:100A6000010000900098DFF838C1704680085CF8FB
:100A700020A01EF00300C0B2800019FA00F93AEA83
:100A8000090A4848834202D15FF0000913E0464852
:100A9000834202D15FF001090DE04448834202D154
:100AA0005FF0020907E04248834202D15FF0030988
:100AB00001E05FF004091EF00300C0B2800019FAE3
:100AC00000F9524659EA0202704680084CF820208C
:100AD0004868C00307D53748D0F800C055EA0C0C69
:100AE000C0F800C006E03348D0F800C03CEA050C6E
:100AF000C0F800C04868800307D52F48D0F800C070
:100B000055EA0C0CC0F800C006E02B48D0F800C035
:100B10003CEA050CC0F800C04868C00207D5274869
:100B2000D0F800C055EA0C0CC0F800C006E023481D
:100B3000D0F800C03CEA050CC0F800C0486880024C
:100B400007D51F48D0F800C055EA0C0CC0F800C00B
:100B500006E01B48D0F800C03CEA050CC0F800C015
:100B60001EF1010EF9E6BDE8F1871300DBB2002BA0
:100B700003D00B009BB2036103E00B009BB21B048C
:100B800003617047000011100000121000002110D6
:100B90000000221000003110000032101810024036
:100BA0000800014000080140000C01400010014015
:100BB0000014014000040140040401400804014005
:100BC0000C04014062F30F2262F31F42401810F040
:100BD000030308D0C91A1FD3DB0748BF00F8012D53
:100BE00028BF20F8022D130030B4144615461039E2
:100BF00028BF20E93C00FAD8490728BF20E90C00AB
:100C000048BF40F8042D890028BF20F8022D48BFB6
:100C100000F8012D30BC7047C91818BF00F8012D2D
:100C2000CB0728BF00F8012D704730B40EE00268F2
:100C3000436802440830DC0744BFA9F10104E3180B
:100C400052F8045B43F8045B091FF9D150F8041B08
:100C50000029ECD130BC70472DE9FC470400002C82
:100C600001D10120F6E12078C0076BD5DFF8D0056F
:100C7000016811F00C01042907D0016811F00C0182
:100C800008290CD10068C00309D5DFF8B005006859
:100C9000800357D56068002854D10120DAE16068EC
:100CA000B0F5803F06D1DFF89405016851F480313A
:100CB000016026E0606800280AD1DFF8800501683D
:100CC00031F480310160016831F48021016018E065
:100CD0006068B0F5A02F0AD1DFF86005016851F413
:100CE00080210160016851F48031016009E0DFF882
:100CF0004C05016831F480310160016831F48021D4
:100D00000160606800280ED0FFF710FE0500DFF8D4
:100D10002C050068800315D4FFF708FE401B6528EA
:100D2000F5D3032096E1FFF701FE0500DFF80C057F
:100D30000068800306D5FFF7F9FD401B6528F5D351
:100D4000032087E12078800750D5DFF8F40401689C
:100D500011F00C0F07D0016811F00C01082914D113
:100D60000068C00311D4DFF8D4040168890704D5F2
:100D70002169012901D001206CE1016831F0F801FD
:100D8000626951EAC201016030E0206900281AD08E
:100D90000120DFF8C0140860FFF7C8FD0500DFF888
:100DA0009C040168890706D4FFF7C0FD401B032897
:100DB000F5D303204EE1016831F0F801626951EA90
:100DC000C201016012E00020DFF888140860FFF71C
:100DD000ADFD0500DFF864040068800706D5FFF765
:100DE000A5FD401B0328F5D3032033E1207800073D
:100DF0002CD5A069002816D00120DFF85C1408600B
:100E0000FFF794FD0500DFF848040068800706D46A
:100E1000FFF78CFD401B0328F5D303201AE10120C6
:100E200000F0F9F912E00020DFF82C140860FFF759
:100E30007DFD0500DFF818040068800706D5FFF780
:100E400075FD401B0328F5D3032003E120784007FC
:100E500040F18E800027DFF80484D8F80000C0003D
:100E60000DD4D8F8000050F08050C8F80000D8F831
:100E7000000010F080500090009801200700DFF87B
:100E8000E093D9F80000C00513D4D9F8000050F45D
:100E90008070C9F80000FFF749FD0500D9F800008F
:100EA000C00506D4FFF742FD401B6528F6D303209A
:100EB000D0E0E068012806D1DFF8A803016851F00E
:100EC0000101016025E0E06800280AD1DFF8940301
:100ED0000168490849000160016831F004010160BE
:100EE00017E0E06805280AD1DFF87803016851F0BF
:100EF00004010160016851F00101016009E0DFF8BF
:100F000064030168490849000160016831F0040187
:100F10000160E068002810D0FFF708FD0500DFF849
:100F200044030068800719D4FFF700FD401B41F21D
:100F300089318842F3D303208CE0FFF7F7FC0500EA
:100F4000DFF820030068800708D5FFF7EFFC401B9F
:100F500041F289318842F3D303207BE03800C0B2EC
:100F6000012805D1D8F8000030F08050C8F8000002
:100F7000E06900286DD0DFF8C882D8F8000010F0D2
:100F80000C00082851D0E06902283BD1DFF8D8A234
:100F90000020CAF80000FFF7C9FC0700DFF89C92A8
:100FA000D9F80000800106D5FFF7C0FCC01B03285C
:100FB000F4D303204EE0206AB0F5803F07D1D8F883
:100FC000001031F40031A0680143C8F80010D8F8CF
:100FD000001031F47411206A0143606A0143C8F8BB
:100FE00000100120CAF80000FFF7A0FC0500D9F8A6
:100FF000000080012DD4FFF799FC401B0328F6D395
:10100000032027E00020DFF860120860FFF78EFC65
:101010000500DFF82802006880011AD5FFF786FC7A
:10102000401B0328F5D3032014E0E069012801D117
:1010300001200FE0D8F80000060016F48030216A85
:10104000884204D116F47010616A884201D00120F0
:1010500000E00020BDE8F6872DE9F04104000D0016
:10106000002C01D101209CE0DFF80072386810F0FC
:101070000700A8420BD23868C008C0002843386077
:10108000386810F00700A84201D0012089E02078DC
:10109000800717D52078400705D5DFF8A40101683F
:1010A00051F4E06101602078000704D564480168CC
:1010B00051F46051016062490A6832F0F002A068A0
:1010C00002430A602078C00735D56068012805D141
:1010D0005A480068800310D4012062E0606802284A
:1010E00005D156480068800107D4012059E05348D3
:1010F0000068800701D4012053E0DFF84481D8F86C
:1011000000108908890060680143C8F80010FFF7E3
:101110000DFC0600D8F8000010F00C006168B0EB80
:10112000810F08D0FFF702FC801B41F28931884211
:10113000F0D3032035E0386810F0070085420BD269
:101140003868C008C00028433860386810F00700CD
:10115000A84201D0012024E02078400706D5384974
:101160000A6832F4E062E06802430A60207800070F
:1011700007D53348016831F46051226951EAC20150
:10118000016000F010F83A492D4A1268C2F30312C8
:10119000895CC8402C4908602C48006800F070F851
:1011A0000020BDE8F081F0B585B001A831491022DA
:1011B00000F08CF830480088ADF8000000200021D5
:1011C0000022002300251E4E346814F00C07042F63
:1011D00002D0082F02D01BE01A481AE001A8C4F37D
:1011E0008347C05D0300E0030CD568463668C6F34C
:1011F0004046805D0100134800FB03F0B0FBF1F0B6
:10120000020003E01D4800FB03F00200100000E0B4
:101210000C4805B0F0BD81B00B490968C9084FF40E
:101220007A72B1FBF2F101FB00F1009100BF00996D
:101230004A1E00920029F9D101B070470010024007
:101240000410024000127A002C0000202800002028
:101250002410024000004242800442421C1002401E
:101260000070004020100240600042420020024016
:1012700074180008641800085213000800093D00A3
:1012800010B504004FF47A700D490978B0FBF1F005
:101290000C490968B1FBF0F000F0D9F8002801D042
:1012A00001200CE0102C09D2002221005FF0FF3059
:1012B00000F0B8F804480460002000E0012010BDF0
:1012C000300000202C00002028000020103A07D316
:1012D00030B4B1E83810103AA0E83810F9D230BC78
:1012E000530724BFB1E80810A0E8081044BF51F824
:1012F000043B40F8043BD20724BF31F8022B20F80E
:10130000022B44BF0B7803707047121F17D35B008A
:1013100009D151F8043B20F8023B1B0C121F20F8A6
:10132000023BF6D20BE051F8043B00F8013B1B0AEC
:1013300020F8023B1B0C121F00F8013BF3D238BF10
:10134000121D521E24BF11F8013B00F8013BF8D8D2
:101350007047010210B410F00703404C22684FF6AA
:10136000FF010A403E4951EA03210A43226010BCB2
:1013700070473A480068C0F30220704710B402007A
:1013800052B2002A05D40A01364B040064B21A5541
:1013900008E00A01344B040064B214F00F04234443
:1013A00003F8042C10BC704770B4030013F007045A
:1013B000D4F10700052801D3042001E0D4F107008F
:1013C000251D072D01D2002500E0E51E012616FA95
:1013D00000F0401E0140A94016FA05F56D1E2A4096
:1013E0001143080070BC704710B50400601EB0F1D6
:1013F000807F01D301200EE0601E1C4908600F2190
:101400005FF0FF30FFF7BAFF00201949086007209E
:1014100018490860002010BD10B504002000FFF737
:1014200099FF10BD2DE9F04104000D0016000027C2
:10143000FFF79FFF8046320029004046FFF7B4FFC8
:101440000100200040B2FFF799FFBDE8F08110B520
:1014500004002000FFF7C8FF10BD00000CED00E005
:101460000000FA0500E400E018ED00E014E000E000
:1014700018E000E010E000E0F8B500F0E9F800F056
:1014800057F800F0AFF800F08AF8664D00221021FE
:101490002800FFF76AFB644E42F228373B000F2218
:1014A00062493000FEF767FE012210212800FFF795
:1014B0005CFB002210212800FFF757FB5C4C3B002F
:1014C000102221003000FEF72BFF012210212800FE
:1014D000FFF74BFB0F225749200000F0CBF8002804
:1014E00018D05548D0E90023521C73F1FF33C0E9EE
:1014F0000023524D00224FF400512800FFF735FB26
:10150000642000F0EBF801224FF400512800FFF7AF
:101510002CFB07E04A48D0E90023521C73F1FF334B
:10152000C0E90023142200212000FFF705FAACE7F0
:1015300000B58FB02822002105A8FFF7FDF914227D
:1015400000216846FFF7F8F9012005905FF480302C
:101550000690002107910121099102210C910D9023
:101560005FF4E0100E9005A8FFF776FB002801D08D
:1015700000F06CF80F2000900220019000200290F3
:101580004FF4806003900020049002216846FFF72A
:1015900063FD002801D000F059F80FB000BD80B500
:1015A0002148284901604FF4827141600021816027
:1015B0000021C16000210161002141614FF40071EF
:1015C00081612021C161002101620021416200216D
:1015D00081620A21C162FEF789FD002801D000F076
:1015E00035F801BD81B01848016851F01001016063
:1015F000016811F0100100910099016851F020017B
:101600000160016811F0200100910099016851F01A
:1016100004010160006810F004000090009801B01F
:101620007047000000080140340000200000002046
:1016300014000020541800089800002000100140F9
:101640009000002000300140181002407047000058
:1016500080B50748016851F0100101600320FFF7D1
:10166000DBFE0020FFF70CFEFFF7F0F8002002BDC4
:10167000002002400300002013F0030F09D0521E87
:1016800022BF13F8010B11F801CBB0EB0C00F3D023
:10169000704711F0030F14D1121F22BF53F8040B2F
:1016A00051F804CB6045F7D0121D0AD200BA9CFA5B
:1016B0008CFCB0EB0C0038BF6FF0000088BF01203D
:1016C0007047521E22BF13F8010B11F801CBB0EB8B
:1016D0000C00F6D0521C08BF1046704770B50400CD
:1016E000FFF724F90500260016F1010F02D0044887
:1016F00000788619FFF71AF9401BB042FAD370BD83
:10170000300000200F49086850F0010008600E4AC0
:1017100013680E48034013600B680D4803400B60CC
:10172000086830F480200860106830F4FE00106013
:101730005FF41F00074908605FF000600649086019
:101740007047000000100240041002400000FFF843
:10175000FFFFF6FE0810024008ED00E0416D6974DD
:1017600020436861756468617279000000000000C0
:1017700053686977616E692053616E6777616E00A7
:1017800000000000100000000024F4000100000030
:1017900010B5074979441831064C7C44163404E0EE
:1017A0000A68081D114488470146A142F8D110BDBE
:1017B00008000000280000005BF0FFFF7000000040
:1017C000340000200000000063F4FFFF340000003C
:1017D0008CFFFFFF000000200000000000F00DF86B
:1017E000002801D0FFF7D4FFAFF300800020AFF353
:1017F0000080FFF741FE00F002F80120704700F082
:1018000001B800000746384600F002F8FBE7000088
:1018100080B5AFF30080024A11001820ABBEFBE791
:101820002600020003490A680348007882180A600B
:10183000704700BFA0000020300000207047FEE786
:10184000FEE7FEE7FEE770477047704780B5FFF799
:10185000E9FF01BD53686977616E692053616E6766
:1018600077616E0002030405060708090A0B0C0DD8
:101870000E0F101000000000000000000102030421
:101880000607080901488047014800470517000876
:1018900095180008AFF30080AFF30080FFF79EFFBC
:1018A000FFF7FEBFFFF7FEBFFFF7FEBFFFF7FEBF6C
:1018B000FFF7FEBFFFF7FEBFFFF7FEBFFFF7FEBF5C
:1018C000FFF7FEBFFFF7FEBFFFF7FEBFFFF7FEBF4C
:1018D000FFF7FEBFFFF7FEBFFFF7FEBFFFF7FEBF3C
:1018E000FFF7FEBFFFF7FEBFFFF7FEBFFFF7FEBF2C
:1018F000FFF7FEBFFFF7FEBFFFF7FEBFFFF7FEBF1C
:10190000FFF7FEBFFFF7FEBFFFF7FEBFFFF7FEBF0B
:10191000FFF7FEBFFFF7FEBFFFF7FEBFFFF7FEBFFB
:10192000FFF7FEBFFFF7FEBFFFF7FEBFFFF7FEBFEB
:10193000FFF7FEBFFFF7FEBFFFF7FEBFFFF7FEBFDB
:0C194000FFF7FEBFFFF7FEBFFFF7FEBF82
:040000050800189542
:00000001FF
