:020000040800F2
:10000000C0040020851F0008351E0008371E0008A8
:10001000391E00083B1E00083D1E000800000000BD
:100020000000000000000000000000003F1E00086B
:10003000411E000800000000431E0008451E000885
:10004000A91F0008AD1F0008B11F0008B51F000858
:10005000B91F0008BD1F0008C11F0008C51F000808
:10006000C91F0008CD1F0008D11F0008D51F0008B8
:10007000D91F0008DD1F0008E11F0008E51F000868
:10008000E91F0008ED1F0008F11F00080000000034
:10009000000000000000000000000000F51F000844
:1000A000F91F0008FD1F00080120000805200008B6
:1000B000092000080D200008112000081520000864
:1000C000192000081D200008212000084D1E0008EE
:1000D00025200008571E0008292000080000000005
:1000E0002D20000831200008352000080000000005
:1000F000000000000000000000000000392000089F
:10010000000000003D2000084120000845200008B4
:1001100000000000000000000000000000000000DF
:10012000492000084D2000085120000855200008F3
:10013000592000080000000000000000000000003E
:100140000000000000000000000000005D2000082A
:100150006120000865200008692000086D20000863
:100160007120000875200008000000000000000059
:10017000000000000000000000000000000000007F
:1001800000000000792000080000000000000000CE
:100190007D2000088120000810B50400002C01D14A
:1001A000012033E0A0690028FFD194F8390000282D
:1001B00005D1002084F83800200000F07AFD2420CA
:1001C00084F839002068C06830F400502168C860A5
:1001D000200000F027FA2068006930F49040216880
:1001E00008612068406930F02A0021684861206871
:1001F000C06850F400502168C8600020E0632020EF
:1002000084F83900202084F83A00002010BD2DE940
:10021000FC4705000C0016001F005FF0000A95F86F
:100220003900202860D1002C03D0300080B2002893
:1002300001D1012059E095F83800012801D10220B0
:1002400053E0012085F838000020E863212085F87C
:10025000390000F077FD8146AE84EE84002085F8F9
:100260003800E88C00282FD0E88C401EE884A8686D
:10027000B0F5805F18D100974B46002280212800FE
:1002800000F0DDF8002801D003202EE0A046B8F8E9
:100290000000C005C00D296848602869002801D108
:1002A000A41CDEE7641CDCE700974B46002280219B
:1002B000280000F0C4F8002801D0032015E02078C1
:1002C00029684860641CCCE700974B460022402117
:1002D000280000F0B4F8002801D0032005E0202019
:1002E00085F83900002000E00220BDE8F6872DE9FE
:1002F000F8430600306807683068D0F80C80306832
:10030000D0F814900020002517F00F04002C08D11D
:10031000B80606D55FEA886003D5300000F02BF9F7
:100320008BE0002C77D05FEAC97002D418F4907F7C
:1003300071D017F00100C0B2002806D05FEAC850A3
:1003400003D5F06B50F00100F063780708D519F081
:100350000100C0B2002803D0F06B50F00200F0633F
:10036000B80708D519F00100C0B2002803D0F06B1F
:1003700050F00400F06338070BD55FEA886004D4BE
:1003800019F00100C0B2002803D0F06B50F0080053
:10039000F063F06B00283DD0B80605D55FEA8860B1
:1003A00002D5300000F0E7F830684069800910F0AD
:1003B00001000500F06B000701D4002D25D03000AE
:1003C00000F074F83068406940061AD5306840691A
:1003D00030F0400031684861706B00280DD00FF29A
:1003E000F100716B0865706B00F0B2FC002811D051
:1003F000706B716B096D88470CE0300000F0BCFC3D
:1004000008E0300000F0B8FC04E0300000F0B4FC7C
:100410000020F06311E0380606D55FEA086003D5D6
:10042000300000F061F808E0780606D55FEA486021
:1004300003D5300000F08FF8FFE7BDE8F1832DE928
:10044000F04105000E0090461F00069C28680068D9
:100450003040B04201D1012000E000204146C9B245
:10046000884220D114F1010FF0D0002C04D000F00C
:1004700069FCC01B8442E9D22868C06830F4D0709F
:100480002968C860286840694008400029684861B8
:10049000202085F83900202085F83A00002085F8D2
:1004A0003800032000E00020BDE8F0810168C96841
:1004B00031F490710268D1600168496949084900C6
:1004C00002685161202180F83A1070470000000056
:1004D00038B50400A56B0020E8850020E8842800DA
:1004E00000F04AFC31BD0000010091F839002128DC
:1004F0002FD18868B0F5805F11D1086A020010889A
:10050000C005C00D0B6858600869002803D1086A4F
:10051000801C086209E0086A401C086205E0086A5D
:10052000431C0B6200780B685860C88C401EC8845E
:1005300080B200280BD10868C06830F080000B68DA
:10054000D8600868C06850F040000B68D860002090
:1005500000E00220704710B504002068C06830F049
:1005600040002168C860202084F83900200000F095
:1005700004FC002010BD38B5040094F83A0022288D
:100580004ED1A068B0F5805F16D1A06A0500206941
:10059000002808D120684068C005C00D2880A06AE6
:1005A000801CA0621AE02068406800F0FF002880EC
:1005B000A06A401CA06211E02069002806D1A06A50
:1005C000411CA16221684968017007E0A06A411CD2
:1005D000A1622168496811F07F010170E08D401E21
:1005E000E08580B2002819D12068C06830F0200072
:1005F0002168C8602068C06830F480702168C860D5
:10060000206840694008400021684861202084F843
:100610003A00200000F0B2FB002002E0002000E0E1
:10062000022032BD2DE9F14F84B0049800680169C1
:1006300031F440510498C068014304980068016196
:100640000498816804980069014304984069014353
:100650000498C0690143029104980068C168DFF8FA
:10066000980501400298014304980068C16004980D
:100670000068416931F4407104988069014304982D
:10068000006841610498C069B0F5004F40F05B819B
:1006900004980068DFF86415884206D00498006862
:1006A000DFF85C15884240F0A78000F033FC8046FC
:1006B0005FF0640902240025192600274246002322
:1006C000A6FB020106FB031107FB021182468B46C3
:1006D000049840680021A4FB002304FB013305FBC0
:1006E00000335046594600F07DFC6421B0FBF1F028
:1006F000019042460023A6FB020106FB031107FB03
:10070000021182468B46049840680021A4FB002316
:1007100004FB013305FB00335046594600F062FCF0
:10072000009042460023A6FB020106FB031107FBD3
:10073000021182468B46049840680021A4FB0023E6
:1007400004FB013305FB00335046594600F04AFCD8
:100750006421B0FBF1F1009809FB1101C8003230AF
:100760006421B0FBF1F0400010F4F870019910EB37
:100770000110009042460023A6FB020106FB031174
:1007800007FB021182468B46049840680021A4FBB7
:10079000002304FB013305FB00335046594600F0AB
:1007A00021FC82464046002102000B00A6FB02010C
:1007B00006FB031107FB0211049A5268002316007E
:1007C0001F00A4FB062304FB073305FB063300F0E0
:1007D00009FC6421B0FBF1F009FB10A95FEAC90034
:1007E00032306421B0FBF1F111F0070100980918D3
:1007F000049800688160FCE100F081FB80465FF0B6
:100800006409022400251926002742460023A6FB7E
:10081000020106FB031107FB021182468B46049876
:1008200040680021A4FB002304FB013305FB0033D7
:100830005046594600F0D6FB6421B0FBF1F0019020
:1008400042460023A6FB020106FB031107FB02112F
:1008500082468B46049840680021A4FB002304FBD9
:10086000013305FB00335046594600F0BBFB0090B6
:1008700042460023A6FB020106FB031107FB0211FF
:1008800082468B46049840680021A4FB002304FBA9
:10089000013305FB00335046594600F0A3FB6421A9
:1008A000B0FBF1F1009809FB1101C800323064215E
:1008B000B0FBF1F0400010F4F870019910EB01105A
:1008C000009042460023A6FB020106FB031107FB32
:1008D000021182468B46049840680021A4FB002345
:1008E00004FB013305FB00335046594600F07AFB08
:1008F00082464046002102000B00A6FB020106FBD7
:10090000031107FB0211049A5268002316001F000E
:10091000A4FB062304FB073305FB063300F062FB50
:100920006421B0FBF1F009FB10A95FEAC900323085
:100930006421B0FBF1F111F0070100980918049847
:100940000068816055E104980068AC49884205D090
:1009500004980068AA49884240F0A68000F0DAFABC
:100960008046042400255FF06409192600274246CA
:100970000023A6FB020106FB031107FB02118246BE
:100980008B46049840680021A4FB002304FB01333C
:1009900005FB00335046594600F024FB6421B0FBB0
:1009A000F1F0019042460023A6FB020106FB031171
:1009B00007FB021182468B46049840680021A4FB85
:1009C000002304FB013305FB00335046594600F079
:1009D00009FB009042460023A6FB020106FB03111F
:1009E00007FB021182468B46049840680021A4FB55
:1009F000002304FB013305FB00335046594600F049
:100A0000F1FA6421B0FBF1F1009809FB1101080132
:100A100032306421B0FBF1F010F0F000019910EBDE
:100A20000110009042460023A6FB020106FB0311C1
:100A300007FB021182468B46049840680021A4FB04
:100A4000002304FB013305FB00335046594600F0F8
:100A5000C9FA82464046002102000B00A6FB0201B3
:100A600006FB031107FB0211049A526800231600CB
:100A70001F00A4FB062304FB073305FB063300F02D
:100A8000B1FA6421B0FBF1F009FB10A95FEA09108B
:100A900032306421B0FBF1F111F00F010098091818
:100AA000049800688160A4E000F029FA80460424DC
:100AB00000255FF064091926002742460023A6FBA3
:100AC000020106FB031107FB021182468B460498C4
:100AD00040680021A4FB002304FB013305FB003325
:100AE0005046594600F07EFA6421B0FBF1F00190C7
:100AF00042460023A6FB020106FB031107FB02117D
:100B000082468B46049840680021A4FB002304FB26
:100B1000013305FB00335046594600F063FA00905C
:100B200042460023A6FB020106FB031107FB02114C
:100B300082468B46049840680021A4FB002304FBF6
:100B4000013305FB00335046594600F04BFA64214F
:100B5000B0FBF1F1009809FB11010801323064216A
:100B6000B0FBF1F010F0F000019910EB01100090D3
:100B700042460023A6FB020106FB031107FB0211FC
:100B800082468B46049840680021A4FB002304FBA6
:100B9000013305FB00335046594600F023FA8246E4
:100BA0004046002102000B00A6FB020106FB0311D8
:100BB00007FB0211049A5268002316001F00A4FBD1
:100BC000062304FB073305FB063300F00BFA642110
:100BD000B0FBF1F009FB10A95FEA09103230642183
:100BE000B0FBF1F111F00F010098091804980068AA
:100BF000816005B0BDE8F08FF369FFFF0010014090
:100C00000014014081B0002000904848016851F470
:100C100080410160006810F480400090009800203E
:100C200000904348016851F080510160006810F065
:100C300080500090009801B0704710B586B0040055
:100C40001422002101A800F0E5FA20683949884201
:100C50002DD1002000903548016851F48051016089
:100C6000006810F4805000900098002000903248F6
:100C7000016851F001010160006810F0010000906E
:100C80000098F020019002200290002003900320A1
:100C900004900520059001A9284800F0C5FA00221B
:100CA0000021232000F04AFC232000F05CFC06B069
:100CB00010BD10B586B004001422002101A800F078
:100CC000A9FA20681E4988422ED1002000901748BA
:100CD000016851F010010160006810F010000090F0
:100CE0000098002000901448016851F00101016053
:100CF000006810F00100009000984FF4C06001906F
:100D00000220029001200390032004900720059008
:100D100001A90A4800F088FA00220021252000F0ED
:100D20000DFC252000F01FFC06B010BD4438024029
:100D3000403802400030014030380240000002409C
:100D40000010014001480068704700BFB800002053
:100D5000010091F83500022803D080204865012069
:100D600009E0052081F83500086800684008400067
:100D70000A6810600020704770477047704730B4B1
:100D8000002513E050F8042BD30744BFA9F1010359
:100D90009A18091F042942F8045BFAD213468C07FB
:100DA00044BF15809B1CC90748BF1D7050F8041B29
:100DB0000029E7D130BC70472DE9F04104000D0057
:100DC000002C01D1012095E0584F386810F00F0039
:100DD000A84207D23D70386810F00F00A84201D039
:100DE000012087E02078800716D52078400704D5B9
:100DF0004F48016851F4E05101602078000704D5A4
:100E00004B48016851F46041016049490A6832F079
:100E1000F002A06802430A602078C00738D56068F5
:100E2000012805D143480068800313D4012061E004
:100E30006068022802D06068032805D13D48006838
:100E4000800107D4012055E03A480068800701D4AA
:100E500001204FE0DFF8D880D8F800108908890019
:100E600060680143C8F80010FFF76CFF0600D8F86F
:100E7000000010F00C006168B0EB810F08D0FFF7A4
:100E800061FF801B41F289318842F0D3032031E0B9
:100E9000386810F00F00854207D23D70386810F0B6
:100EA0000F00A84201D0012024E02078400706D599
:100EB0001F490A6832F4E052E06802430A60207871
:100EC000000707D51A48016831F46041226951EAE8
:100ED000C201016000F038F81749154A1268C2F3E0
:100EE0000312895CC840154908601548006800F085
:100EF00057FB0020BDE8F08110480068704780B5BE
:100F0000FFF7FAFF0F490A4A1268C2F38222895C8E
:100F1000C84002BD80B5FFF7EFFF0A49044A1268D6
:100F2000C2F34232895CC84002BD0000003C02406E
:100F30000838024000380240741F000818000020E2
:100F400014000020A01F00082DE9F0410024002516
:100F5000002600271F48006810F00C00002804D06D
:100F6000042804D0082804D031E01B4830E01B4896
:100F70002EE0DFF86C80D8F8000010F03F0004008D
:100F8000D8F8000040020CD5D8F80000C0F3881053
:100F90001249A1FB00012200002300F023F8050004
:100FA0000BE0D8F80000C0F388100B49A1FB00014A
:100FB0002200002300F016F80500D8F80000C0F366
:100FC0000140401C40000600B5FBF6F000E002487E
:100FD000BDE8F081083802400024F40040787D012B
:100FE00004380240BBBBE1B1B2F5803F80F07E80A7
:100FF000022A1ED98C46B1FBF2F102FB11C31B047D
:1010000043EA1043B3FBF2FC02FB1C3380B240EA1C
:101010000343B3FBF2F002FB103240EA0C40002322
:101020007047022A05D98446B0FBF2F002FB10C2D9
:1010300070474AB105D100F0010249085FEA30006B
:10104000704700220023704700F0D0BA0B00020066
:10105000002100207047904271EB030CF6D3B3F5EA
:10106000803F2FD2F0B5B3FA83F7B1FA81F4A7F13C
:101070000F0E3D1B5340CEF1200602FA0EF2F34153
:101080005340B5F10F0746D80F3C2C444140C4F102
:101090002006A040F1414140B1FBF3F603FB1611DD
:1010A000A2FB0645001BA94102D2761E80185941B9
:1010B00080EA010221FA0EF362FA0EF200215A4090
:1010C0003046F0BD30B4B1FBF3FC03FB1C11A2FBB6
:1010D0000C45001BA94103D2ACF1010C8018594109
:1010E00030BC02460B46604600217047B2F1807F5B
:1010F00065D3F0B5B2FA82F7B1FA81F4C7F10F0601
:101100003D1B22FA06F307F1110EF24120355A4039
:10111000B5F10F07B8D94140C4F12006A040F14114
:101120004140B1FBF3FC03FB1C11A2FB0C45001B6F
:10113000A94103D2BCF1010C801859410F2F12D3E1
:101140000F3FC90341EA5041B1FBF3F603FB16110F
:10115000A2FB0645D4EBC030A94102D2761E80180E
:10116000594146EACC3C07B34140C7F12006B8409C
:10117000F1414140B1FBF3F603FB1611A2FB06451A
:10118000001BA94102D2761E8018594180EA010253
:1011900021FA0EF3C7F1200462FA0EF20CFA07F0FE
:1011A0005A402CFA04F13043F0BD80EA010221FAE2
:1011B0000EF3002162FA0EF260465A40F0BD8C46F2
:1011C000B1FBF2F102FB11C31B0243EA1063B3FB54
:1011D000F2FC02FB1C331B024CEA002043EA1063C2
:1011E000B3FBF2FC02FB1C331B024CEA002043EA77
:1011F0001063B3FBF2FC02FB1C331B024CEA002021
:1012000043EA1063B3FBF2FC02FB1C324CEA002001
:101210000023704710B5044610460A460146204692
:1012200000F0FCF9204610BDF8B50023002400268C
:101230000025102D80F0F080012717FA05F2130029
:101240000A681A4014009C4240F0E4804A68012A6F
:1012500008D04A68022A05D04A68112A02D04A6892
:10126000122A1FD1D0F808C05FF0030E2A00D2B2B4
:1012700052001EFA02FE3CEA0E0CD1F80CE02A00E5
:10128000D2B252001EFA02FE5EEA0C0CC0F808C090
:101290004268AF40BA434F68C7F30017AF403A43C4
:1012A00016004660C7685FF0030C2A00D2B25200F5
:1012B0001CFA02F29743D1F808E02A00D2B2520099
:1012C0001EFA02FE5EEA0707C7604A68022A02D0D9
:1012D0004A68122A1ED12A00D20800EB8202166A3E
:1012E0005FF00F0E15F00702D2B292001EFA02FE56
:1012F00036EA0E06D1F810E015F00702D2B29200DD
:101300001EFA02FE5EEA060637002A00D20800EB4B
:101310008202176206682A00D2B252001CFA02FC4E
:1013200036EA0C0691F804C01CF0030C2A00D2B275
:1013300052001CFA02FC5CEA060606604A68D2000B
:1013400068D500220092354A176857F48047176025
:10135000126812F480420092009ADFF8C4C02A009A
:1013600092085CF822705FF00F0E15F00302D2B203
:1013700092001EFA02FE37EA0E072A4A904201D175
:10138000002614E0284A904201D101260FE0274AA6
:10139000904201D102260AE0254A904201D103265B
:1013A00005E0244A904201D1042600E00726F6B267
:1013B00015F00302D2B29200964037432A009208F9
:1013C0004CF822701C4E3268A243D1F804C05FEA88
:1013D000CC3C00D522433260184F3E68A643D1F87A
:1013E00004C05FEA8C3C00D526433E60144F3A6847
:1013F000A243D1F804C05FEACC2C00D522433A6066
:10140000104F3E68A643D1F804C05FEA8C2C00D58B
:1014100026433E606D1C0CE7F1BD000044380240DD
:101420000838014000000240000402400008024069
:10143000000C024000100240003C0140043C01400E
:10144000083C01400C3C014010B410F00703DFF8E9
:10145000304122684FF6FF010A40DFF8281151EAB7
:1014600003210A43226010BC7047DFF814010068B2
:10147000C0F302207047010049B2002909D40122BB
:1014800010F01F018A40404903005BB25B0941F83C
:101490002320704710B4020052B2002A05D40A017A
:1014A0003A4B040064B21A5508E00A01384B0400B4
:1014B00064B214F00F04234403F8042C10BC7047EA
:1014C00070B4030013F00704D4F10700052801D31A
:1014D000042001E0D4F10700251D072D01D20025CD
:1014E00000E0E51E012616FA00F0401E0140A9406A
:1014F00016FA05F56D1E2A401143080070BC7047AE
:1015000010B50400601EB0F1807F01D301200EE011
:10151000601E204908600F215FF0FF30FFF7BAFF1F
:1015200000201D49086007201C490860002010BDEC
:1015300010B504002000FFF787FF10BD2DE9F04132
:1015400004000D0016000027FFF78FFF80463200D1
:1015500029004046FFF7B4FF0100200040B2FFF72A
:1015600099FFBDE8F08110B50400200040B2FFF7FC
:1015700082FF10BD10B504002000FFF7C1FF10BDB1
:101580000CED00E00000FA0500E100E000E400E0FE
:1015900018ED00E014E000E018E000E010E000E0EA
:1015A00010B504004FF47A700D490978B0FBF1F0E2
:1015B0000C490968B1FBF0F0FFF7DCFF002801D00F
:1015C00001200CE0102C09D2002221005FF0FF3036
:1015D000FFF7B4FF04480460002000E0012010BDC4
:1015E0001C0000201800002014000020704730B4B8
:1015F0000EE00268436802440830DC0744BFA9F1EA
:101600000104E31852F8045B43F8045B091FF9D1A5
:1016100050F8041B0029ECD130BC704762F30F2254
:1016200062F31F42401810F0030308D0C91A1FD3F9
:10163000DB0748BF00F8012D28BF20F8022D13005A
:1016400030B414461546103928BF20E93C00FAD8BA
:10165000490728BF20E90C0048BF40F8042D890045
:1016600028BF20F8022D48BF00F8012D30BC70477C
:10167000C91818BF00F8012DCB0728BF00F8012DAD
:10168000704700002DE9F8430400002C01D101202F
:10169000CEE12078C0075FD5DFF89803016811F02C
:1016A0000C01042909D0006810F00C0008280ED1A4
:1016B000DFF884030068400209D5DFF88003006882
:1016C000800349D56068002846D10120B0E16068F8
:1016D000B0F5803F06D1DFF86403016851F4803132
:1016E000016018E06068B0F5A02F0AD1DFF84C0364
:1016F000016851F480210160016851F4803101607A
:1017000009E0DFF83803016831F4803101600168D5
:1017100031F480210160606800280ED0FFF712FBD1
:101720000500DFF818030068800315D4FFF70AFBF3
:10173000401B6528F5D303207AE1FFF703FB050082
:10174000DFF8F8020068800306D5FFF7FBFA401BBC
:101750006528F5D303206BE1207880074BD5B54889
:10176000016811F00C0F08D0006810F00C00082878
:1017700014D1B1480068400210D4B048016889070C
:1017800004D5E168012901D0012051E1016831F05F
:10179000F801226951EAC20101602CE0E0680028EA
:1017A00018D00120A6490860FFF7CCFA0500A3482D
:1017B0000168890706D4FFF7C5FA401B0328F6D352
:1017C000032035E1016831F0F801226951EAC201D4
:1017D000016010E000209A490860FFF7B3FA0500A5
:1017E00096480068800706D5FFF7ACFA401B03282F
:1017F000F6D303201CE12078000724D56069002877
:1018000010D001208F490860FFF79CFA05008E4830
:101810000068800717D4FFF795FA401B0328F6D31A
:10182000032005E1002087490860FFF78BFA0500D7
:1018300085480068800706D5FFF784FA401B032817
:10184000F6D30320F4E0207840077CD50027DFF8AA
:10185000FC81D8F80000C0000FD400200090D8F818
:10186000000050F08050C8F80000D8F8000010F0D8
:1018700080500090009801200700DFF8D491D9F83B
:101880000000C00513D4D9F8000050F48070C9F8E6
:101890000000FFF757FA0500D9F80000C00506D48C
:1018A000FFF750FA401B0328F6D30320C0E0A068DE
:1018B000012805D16748016851F00101016015E078
:1018C000A068052809D16348016851F0040101604E
:1018D000016851F00101016008E05E4801684908B3
:1018E00049000160016831F004010160A06800282E
:1018F0000FD0FFF727FA050056480068800718D474
:10190000FFF720FA401B41F289318842F4D30320CB
:101910008EE0FFF717FA05004E480068800708D5EB
:10192000FFF710FA401B41F289318842F4D30320BB
:101930007EE03800C0B2012805D1D8F8000030F0B0
:101940008050C8F80000A069002870D039480168AC
:1019500011F00C01082947D0A069022833D13E4F6D
:1019600000203860FFF7EEF98046DFF8D090D9F814
:101970000000800107D5FFF7E5F9B0EB0800032868
:10198000F3D3032054E0E169206A0143606A51EA1D
:101990008011A06A4008401E51EA0041E06A51EA05
:1019A00000612548016001203860FFF7CBF9050090
:1019B000D9F8000080013AD4FFF7C4F9401B03288E
:1019C000F6D3032034E0002023490860FFF7BAF97A
:1019D00005001A480068800129D5FFF7B3F9401BBC
:1019E0000328F6D3032023E0A169012901D10120B6
:1019F0001EE00068060016F48000E169884214D1F8
:101A000016F03F00216A88420FD147F6C07030407F
:101A1000616A884209D116F44030A16A884204D133
:101A200016F07060E16A884201D0012000E00020D9
:101A3000BDE8F28308380240043802400038024012
:101A400000004742800E474274380240403802404E
:101A500000700040703802406000474210B504003A
:101A6000002C01D101203FE0606A00280020A06224
:101A700094F85100002805D1002084F8500020007F
:101A8000FFF7DBF8022084F851002068006830F08E
:101A90004000216808606168A0680143E068014374
:101AA0002069014360690143A06910F4007001439B
:101AB000E0690143206A0143A06A01432068016094
:101AC000A169090C11F00401606A014320684160BA
:101AD0002068C06930F400602168C861002060653A
:101AE000012084F85100002010BD7CB5040020685E
:101AF00045682068866816F04100012805D168060F
:101B000003D52000216C884782E0B00705D5280660
:101B100003D52000616C88477AE016F4B07F77D057
:101B2000A80675D570061BD594F8510003280DD072
:101B3000606D50F004006065002000902068C0686F
:101B40000090206880680090009809E000200090D4
:101B50002068C0680090206880680090009857E076
:101B6000B0060FD5606D50F0010060650020009058
:101B70002068806800902068006830F0400021688C
:101B800008600098F00509D5606D50F008006065A8
:101B9000002000902068806800900098606D002808
:101BA00035D02068406830F0E000216848600120AE
:101BB00084F8510015F0030F26D020684068800893
:101BC000800021684860E06C00280CD00FF24500CE
:101BD000E16C0865E06CFFF7BBF8002803D0606D8E
:101BE00050F040006065A06C002810D00FF2250076
:101BF000A16C0865A06CFFF7ABF8002807D0606DFA
:101C000050F04000606502E0200000F00FF8FFE7B0
:101C100073BD000038B50400A56B0020E8870020E4
:101C2000E886280000F002F831BD0000704700008F
:101C300010B500F0D1F800F017F800F0A0F800F0AF
:101C400065F800F082F85B4C0A20E0730D202074E8
:101C500041F28833142221005748FEF7D8FA4FF496
:101C6000C87000F0D3F8F3E780B592B030220021BD
:101C700006A8FFF7CFFA1422002101A8FFF7CAFA3D
:101C8000002000904E48016851F0805101600068CA
:101C900010F08050009000980020009049480168A2
:101CA00051F440410160006810F4404000900098F9
:101CB000012006905FF4A020079002200C905FF4B2
:101CC00080000D9014200E90A0200F900220109004
:101CD0000420119006A8FFF7D5FC002801D000F0E1
:101CE00079F80F20019002200290002003904FF419
:101CF0008050049000200590032101A8FFF75CF8B4
:101D0000002801D000F066F813B000BD80B52B4864
:101D10002D49016000214160002181600021C160E6
:101D200000210161002141610021816100210162E6
:101D300000214162002181620A21C162FFF78EFE0B
:101D4000002801D000F046F801BD80B51A481F49AF
:101D500001604FF416514160002181600021C16093
:101D6000002101610C214161002181610021C161DB
:101D7000FEF712FA002801D000F02CF801BD81B066
:101D8000002000901248016851F080010160016854
:101D900011F080010091009900210091016851F03B
:101DA00001010160006810F001000090009801B08E
:101DB0007047000000000020780000202000002074
:101DC00040380240007000400030014000100140E7
:101DD000303802407047000080B50B48016851F46C
:101DE00000710160016851F480610160016851F483
:101DF000807101600320FFF79BFB0020FFF7D0FB01
:101E0000FEF700FF002002BD003C024070B5040058
:101E1000FEF798FF0500260016F1010F02D00448D6
:101E200000783618FEF78EFF401BB042FAD370BD23
:101E30001C0000207047FEE7FEE7FEE7FEE7704764
:101E40007047704780B500F00FF801BD80B50448B9
:101E5000FFF74BFE01BD80B50248FEF748FA01BD11
:101E6000200000207800002003480168034A12780F
:101E700089180160704700BFB80000201C000020D6
:101E800010B5074979441831064C7C44163404E0F7
:101E90000A68081D114488470146A142F8D110BDC7
:101EA0002C0000004C0000004EF68851CEF20001DC
:101EB000086840F470000860BFF34F8FBFF36F8F66
:101EC0004FF00070E1EE100A70470000B3EEFFFF24
:101ED0009C000000200000200000000013F7FFFF1E
:101EE000200000005400000000000020000000005E
:101EF00000F00DF8002801D0FFF7C2FFAFF300801B
:101F00000020AFF30080FFF793FE00F002F80120FD
:101F1000704700F001B800000746384600F002F8AC
:101F2000FBE7000080B5AFF30080024A11001820E3
:101F3000ABBEFBE726000200416D69742043686177
:101F40007564686172792E20202000001000000066
:101F50000024F400010000000448016851F47001FD
:101F600001605FF0006002490860704788ED00E0A2
:101F700008ED00E000000000000000000102030482
:101F8000060708090148804701480047591F000813
:101F9000951F0008AFF30080FFF786FFFFF7A8FF4B
:101FA0000000000001020304FFF7FEBFFFF7FEBFC1
:101FB000FFF7FEBFFFF7FEBFFFF7FEBFFFF7FEBF55
:101FC000FFF7FEBFFFF7FEBFFFF7FEBFFFF7FEBF45
:101FD000FFF7FEBFFFF7FEBFFFF7FEBFFFF7FEBF35
:101FE000FFF7FEBFFFF7FEBFFFF7FEBFFFF7FEBF25
:101FF000FFF7FEBFFFF7FEBFFFF7FEBFFFF7FEBF15
:10200000FFF7FEBFFFF7FEBFFFF7FEBFFFF7FEBF04
:10201000FFF7FEBFFFF7FEBFFFF7FEBFFFF7FEBFF4
:10202000FFF7FEBFFFF7FEBFFFF7FEBFFFF7FEBFE4
:10203000FFF7FEBFFFF7FEBFFFF7FEBFFFF7FEBFD4
:10204000FFF7FEBFFFF7FEBFFFF7FEBFFFF7FEBFC4
:10205000FFF7FEBFFFF7FEBFFFF7FEBFFFF7FEBFB4
:10206000FFF7FEBFFFF7FEBFFFF7FEBFFFF7FEBFA4
:10207000FFF7FEBFFFF7FEBFFFF7FEBFFFF7FEBF94
:04208000FFF7FEBFA9
:0400000508001F953B
:00000001FF
