:020000040800F2
:10000000B0160020D9260008992700089B27000871
:1000100000000000000000000000000000000000E0
:100020000000000000000000000000009D27000804
:1000300000000000000000009F270008A127000822
:100040006B12000800000000731B0008AB1B0008C7
:100050004F220008F3270008FF2700083528000872
:100060000000000037280008392800083B28000855
:100070003D2800083F280008412800080000000033
:100080004328000800000000000000004528000888
:100090000000000047280008492800084B280008F5
:1000A000000000004D280008000000004F28000854
:1000B000512800080000000000000000A9270008E7
:1000C000F0B585B0070001D1012049E08A20800009
:1000D0003E1800257078002803D13570380000F0F4
:1000E0008BFB03207070386800F0F1FC00200124C5
:1000F0000DE04101791829228C542823C854C88660
:100100002B23CD548D63CD630D64401CC0B2796840
:100110008842EED300200CE041017918942252006D
:1001200089184D700870CD700D614D618D61401C56
:10013000C0B279688842EFD3391D83B06846202267
:1001400001F048F80EBC386800F0C9FC24203D548A
:100150007470F869012802D1380001F073F80020AA
:1001600005B0F0BD38B504008A2080002518287835
:10017000012801D1022032BD01202870206800F042
:10018000E0FF206800F09EFC0020287032BD0000D7
:10019000F8B584B00500286800F0DAFF000400D547
:1001A000CAE0286800F0D4FF40050DD52868442136
:1001B000415AB84A0A4044214252280000F05CFBF0
:1001C0000021280000F01EFA286800F0C1FF40045A
:1001D00006D528684421415AAF4A0A404421425278
:1001E000286800F0B5FF800406D528684421415AEC
:1001F000CD4A0A4044214252982080002C18802782
:100200007F01286800F0A4FF38401FD028684021F3
:10021000415AC64A0A40402142522868415AC44ABB
:100220000A40402142522078012805D10020207048
:100230000021280001F018F8280000F03FFB286892
:100240004421415AD04A0A40442142520826286893
:1002500000F07EFF00051CD528684021415A082285
:100260000A434021425228684421415AC74A0A4061
:100270004421425228684021415A04220A43402125
:100280004252286800F064FF074002D1280000F0C5
:1002900005FB286800F05CFF000623D52868442190
:1002A000415ACD4A0A40442142522078002800D0C9
:1002B00072E128684021415A04220A4340214252F7
:1002C0002868415A0E434021465201202070286878
:1002D0005421405A80083C210140616001212800DE
:1002E00000F0C2FF5BE1BD4A0A401743078028685F
:1002F0005021415A2822AA5CD20089180818B8490E
:10030000401800888005800D6864E96B0818E86370
:100310000021280000F09FFA2420285C00280BD040
:10032000286C002808D12420285C044328684C212C
:100330004452002024216854286880273F02442129
:10034000415A394200D12CE74421415A0A07120F81
:1003500001928024002A6DD1C9060188C3D5942258
:100360005200AE180A051BD55021415A3278D200EE
:10037000891809189B4A891809888B059B0DF36118
:10038000F2888C218900691800F010FF2868018824
:10039000954A0A4014430480280000F046FACBE74F
:1003A0003940C9D00188904A0A4014430480286823
:1003B0008C4C5021415A3278D200891809180919F9
:1003C00009888B059B0DF3610DD0716900290AD056
:1003D000F28800F0EBFE7069F1694018706100214D
:1003E000280000F02CFA28685021415A40180019C2
:1003F0003169002904D101887C4A0A4017430DE085
:100400003F2905D24A08C90700D5521C970205E0CA
:100410004A09C90600D1521E91020F43078028687D
:100420000188734A0A40C02189015140714A0A4338
:10043000028081E7910040180188039101994901E8
:10044000691802910399394079D00188664A0A40B7
:1004500080211143018002989421490040180090A6
:100460002868654E0099097B002917D15021415A0F
:10047000009A1278D200891809185A4A89180988EE
:100480000E403AD033000099CA88496900F08EFEC8
:1004900033E000BFFFFB0000FFBF000000990A78B7
:1004A0009300C35A5B040DD55023C35AD2009A1847
:1004B0001118F21C891809880E4013D033000099D6
:1004C0000A890CE05023C35AD2009A181118454AE1
:1004D000891809880E4005D0330000994A89496976
:1004E00000F064FE286800990978890040180188A6
:1004F000424A0A404249114301800099C969891959
:10050000009AD161009949698A1900994A61009954
:100510008B69002B0ED009698E420BD300980178AD
:10052000280000F0D3F80AE0FFDF0000FBFF000026
:10053000F7FF000000980178280000F080F9039888
:10054000044020D0029828302968019A9200891826
:100550000A88224B13401F430F8001782A685023DA
:10056000D35ACC001B199A181D4BD2181288920529
:10057000920DC26143699A1842618369002B07D1C9
:10058000280000F068F9D7E6FFEF0000FFF7000051
:10059000280000F0B9F8CFE6280000F07FF92868BD
:1005A00000F0D6FD800509D528684421415A904ABB
:1005B0000A4044214252280000F057F9286800F010
:1005C000C7FDC00506D528684421415A894A0A401A
:1005D0004421425205B0F0BD7FFF00000F8F0000A4
:1005E00002040000060400008F0F0000FF830000DB
:1005F0008FBF000080800000FF0300008F8F00008D
:10060000C080000010B58A22920084182278012A46
:1006100001D1022010BD01222270242281540068E1
:1006200000F088FD0020207010BDF1B507250C00FA
:100630002C4064010019012600240F0602D5283041
:10064000467003E094277F00C01944700D40057088
:100650000261C3704178002901D00178C181022B69
:1006600000D1047100998A2292008D1829780129FD
:1006700001D10220F2BD2E7001000098006800F048
:100680003FFA2C700020F2BD70B50A000723194014
:100690004901411801260024150602D528314E7063
:1006A00003E094256D0049194C7013400B708A22A9
:1006B000920085182A78012A01D1022070BD2E707F
:1006C000006800F077FB2C70002070BD70B514003E
:1006D00007250A002A4052018218942676009219B2
:1006E000546193610023D36153700D40157000680D
:1006F000110000F0FFFB002070BD4907090E4018F3
:10070000A22149004058704738B5140007250A0057
:100710002A40520182182832546193610023D36128
:10072000012353700D4015700068110000F0E2FBCA
:10073000002032BDF8B50400080007263140626889
:100740008A4201D20120F2BD01220025030604D510
:100750004901611828314A7005E04101611894236C
:100760005B00C9184D708A7006400E708A208000A8
:1007700027183878012801D10220F2BD3A7020688C
:1007800000F090FC002E05D18C20800021182068FC
:1007900000F0E1FC3D700020F2BD70B50A00436836
:1007A0000C07240FA34201D2012070BD072319407A
:1007B0004901411801260024150602D528314E7042
:1007C00003E094256D0049194C708C7013400B7038
:1007D0008A22920085182A78012A01D1022070BD50
:1007E0002E70006800F073FC2C70002070BD0000BB
:1007F000FFFD0000FFFE000000688849884200D02D
:10080000704780B58020000485490A6802430A6069
:100810000968084000900098002200211F2000F085
:1008200042FD1F2000F043FD01BD80B58C218900F1
:1008300041189C229200805800F097FD01BD80B5C0
:100840004A0182189E235B00D2589C239B00C0580B
:1008500000F0B8FD01BD80B54A018218D26B9C231F
:100860009B00C05800F0F0FD01BD80B59C218900BF
:10087000405800F087FE01BD10B50400A0680228B2
:1008800001D000F0DEFE9C208000241801212068A9
:1008900000F062FE206800F036FE10BD10B50400C6
:1008A0009C208000205800F05AFEA069002804D047
:1008B0005C48016806220A43026010BD10B50400BE
:1008C000A069002806D057480168062291430160BC
:1008D00000F088FE9C208000205800F049FE10BDEA
:1008E00010B5010050489C229200815050328C1863
:1008F00020604A4901600821416002218160016154
:1009000000218161C1610162FFF7DAFB002801D09B
:1009100000F097FE182300220021206800F074FCEC
:10092000582300228021206800F06EFCC0230022A2
:100930008121206800F068FC88235B0000220121EF
:10094000206800F061FC80235B0000228221206887
:1009500000F05AFC002010BD80B5B021890040583D
:10096000FFF700FC00F065F802BD10B514001A0096
:100970002300B024A4000059FFF757FE00F059F8F7
:1009800010BD80B5B02292008058FFF77DFE00F0C8
:1009900050F802BD80B5B02292008058FFF7CAFE21
:1009A00000F047F802BD80B5B02292008058FFF7F2
:1009B000F4FE00F03EF802BDB022920080584A06D4
:1009C000120D8018090601D52A2101E09521490060
:1009D000405C704780B5B02292008058FFF712FE4D
:1009E00000F027F802BD10B5B024A4000059FFF7AD
:1009F0008BFE00F01EF810BD10B5B024A400005905
:100A0000FFF764FE00F015F810BD80B5B02292002B
:100A10008058FFF772FE02BD04487047005C00403A
:100A20001C10024010ED00E0140C0020880E002085
:100A3000704701000020002904D0022901D10120C3
:100A4000704702207047F1B40168421841684808B5
:100A5000131800988068C9071ED5494640181BE046
:100A60001778521C0770401C761EF9D1002C13D049
:100A70001678521C89080D40032D01D11578521C9F
:100A8000290271184D424119A41C05D00D78491C4A
:100A90000570401C641EF9D19A420FD01178521C87
:100AA000032503260E4002D11678F61C521C0C09B1
:100AB0000F2CD9D114780F34521CD5E700980C3084
:100AC000F2BC70474021415AB24A0A4303E0402138
:100AD000415AB14A0A4040214252002070470EB4A8
:100AE0000100403101220A8000220A808A800A82A5
:100AF0004022805AA74A02430A80002003B0704770
:100B0000FCB500226B465A700A78920083181A8846
:100B1000A24C1440CA78002A05D0022A12D009D368
:100B2000032A04D00BE022008024A40005E0220068
:100B3000C02401E022008024E400144302E00122EA
:100B40006D466A70964A14431C800B789C00041909
:100B50002588944E2E401E43164326800B786C4603
:100B60002370C0239B0120248F4D0E7B002E6E46E8
:100B7000367864D1F6000196CF888C4E3E404F788F
:100B8000002F1FD05023C35AC318019FDB196701E0
:100B9000DB191E800B789B00C3181E88760605D5CE
:100BA0001F88804E3E40824F37431F800B789B004A
:100BB000C018C9780129018800D1A8E00D406C4017
:100BC0002243E2E05024045B0419019D6419550995
:100BD000641926805024045B04190D78ED00641913
:100BE000BF4D65190E6980242402002E04D12E8881
:100BF000BC4F37403C430DE03F2E05D27408F6074A
:100C000000D5641CA40205E07709F60600D17F1E1A
:100C1000BE0234432C800C78A400041925886D048E
:100C200005D525885F4E2E40AF4D35432580097888
:100C3000890040180188AD4C0C406340A4E0B60028
:100C40008619019636886F467E806E467788554EA7
:100C50003E40A74F3743019E37805026865B6F4644
:100C60007E806E46768887190E78F600BF19660179
:100C7000BF19BC460F894D4E3E4067463E80502608
:100C8000865B86190F78FF00F6195709F719BC46DD
:100C90004F89464E3E4067463E800E78B600861924
:100CA00001964E78002E35D1019C2488640407D526
:100CB000019C24883B4E26408B4C3443019E34805B
:100CC0000C78A400041901942488640607D5019CBB
:100CD0002488344E2640364C3443019E34800C78B0
:100CE000A4000419019424882E4E2640304C34432D
:100CF000019E34800C78A400041926887B4F37406D
:100D00007B401343238009788900401801880D40F7
:100D10002A433AE0019B1E88224B760406D5019EA9
:100D200037881F40704E3E43019F3E800E78B600CC
:100D3000861901963688760606D5019E37881F40AB
:100D40001B4E3E43019F3E800E78B60086190196E9
:100D500036883340644E1E43019B1E800B789B00F7
:100D6000C318CE78012E05D01E8835406C40144340
:100D70001C8003E01C88254015431D8009788900EC
:100D800040180188594B0B401A430280684640784E
:100D9000F6BD000080BF00007F4000008F8900008A
:100DA000808000008F8F0000BF8F0000FEFF0000DA
:100DB000C0800000F2B582B0097889004118009126
:100DC000029949786A461171484DB149B14AB24B0E
:100DD000B24C029E367B002E6E46367917D1002E1D
:100DE0000AD0009D2D886D063CD5009D2D882C4095
:100DF0002343009C238035E0009A1288520465D575
:100E0000009A12881440384A2243009B5DE0002E6D
:100E1000009E36882ED1760406D5009E378827405E
:100E2000314E3E43009F3E80029E3678B6008619C2
:100E300000963688760605D5009E368826401E43E5
:100E4000009F3E80029E3678B600861937883C4067
:100E500023433380029B1B789B00C3181C882540CA
:100E60000D431D80029B1B789B00C01803881A400D
:100E7000114332E06F46BE806E46B688760406D5D2
:100E8000009E37882740184E3E43009F3E80029EBA
:100E90003678B600861900963688760605D5009E07
:100EA000368826403343009E3380029B1B789B008C
:100EB000C3181E8834400C4E26431E80029B1B78AC
:100EC0009B00C3181C8822400A431A80029A127899
:100ED0009200801802881540294301800020FEBD41
:100EE00006040000FF83000080C000008FBF0000E8
:100EF00080810000FEB504000D002E69A8696B78A2
:100F00000021012B51D1864201D2811B00E0060055
:100F1000A961287B00280FD1B3B2EA886969200053
:100F200000F032F95020205A20182978C9004018C2
:100F30008C494018068030E02A78D0009200A25AEE
:100F4000520608D55022A25AA118081886494018FE
:100F500006806A8907E05022A25AA1180818814920
:100F6000401806802A89B3B26969200000F00CF9A4
:100F700069784A48002906D12978890061180A88C9
:100F80001040454A07E0012907D1297889006118F6
:100F90000A881040754A02430A8028788000201889
:100FA00001883C4A0A4030216CE0864201D2811B14
:100FB00000E00600A961F007C00F01901F2080210A
:100FC00009026B4A2F7B002F28D0002B1ED1502303
:100FD000E35AE3182F78FF00DB19624FDB19009307
:100FE000002E02D11B8813400DE03F2E06D273085D
:100FF000019F002F00D05B1C9B0205E07309064295
:1010000000D15B1E9B020B43009F3B8002946B78D8
:101010006F463B706B461B78002B1FD15023E35A61
:10102000E3182F78FF00DB194F4FDB19002E03D197
:101030001888024011430FE03F2E07D27008019933
:10104000002900D0401C8002188013E07209304053
:1010500000D1521E9002014319800BE0012B09D1EF
:101060005020205A029908182978C90040183E4992
:10107000401806802878800020180188084A0A4015
:10108000C021890151403B4A0A4302800020FEBD35
:1010900080800000BF8F0000C08000008F8F0000A4
:1010A0008FBF00000A7892008018324A49780029E0
:1010B000018803D0304B0B40102103E02F4B0B4035
:1010C0008021490159400A4302800020704730B511
:1010D0000A7B002A2CD10A7892008318254A284CD2
:1010E0004D78002D1D8811D06D0604D51D882C402B
:1010F000244D25431D80CB78012B19D00978890018
:10110000401801881C4B0B4020210EE06D0404D5D3
:101110001D882C40154D25431D80097889004018F5
:101120000188164B0B40C021890159400A430280B7
:10113000002030BD002902D180214C2281520020A4
:1011400070475821415A802212020A43582105E073
:101150004421405A704700207047402142520020ED
:1011600070470000020400000604000080C0000078
:10117000FF83000080800000BF8F00008FBF000051
:101180008F8F0000C080000010B580188022D20030
:1011900080185B1C5A0807E00B784C7824021C432B
:1011A0000480801C891C521EF6D110BD10B5801819
:1011B0008022D20080185A0806E00488801C0C7037
:1011C000240A4C70891C521EF7D1DA0701D5008819
:1011D000087010BD70B4103A03D378C9103A78C0C3
:1011E000FBD2530701D318C918C001D508C908C0DC
:1011F000D20704D30B880380891C801C002A01D5E8
:101200000B78037070BC704710B50C0604D5490705
:10121000090E4018283004E0490140189421490083
:101220004018002A03D100210173C38004E001218A
:1012300001730381190C4181002010BD58200A520E
:101240000020704701689822920080180122826075
:10125000002303705420085A024354200A52085AAB
:10126000022202435420EAE77047FEE710B5C200AD
:1012700018231340FF249C40E2438907090E99403C
:10128000030004D418489B089B00C01806E0174BC5
:101290000007000F083880088000181803681A40FB
:1012A0001143016010BD80B5FFF7E0FF01BD0100F3
:1012B00005D40121C006C00E81400D480160704771
:1012C00010B5401E80214904884201D3012010BD81
:1012D000084C606003210020C043FFF7C7FF0020D7
:1012E000A0600721216010BD00E400E01CED00E0DB
:1012F00000E100E010E000E010B5002801D102207C
:1013000010BDA7239B00C3189C69002C01D00024AA
:101310009C61002900D05961012119700270FFF70A
:10132000DFFA002010BD02000020002903D0AD2309
:101330009B00D15070470220704780B5FFF70CFB2F
:10134000002002BD10B50224AD2292008258002A6E
:1013500004D012689047002800D10024200010BD5E
:1013600080B5AD22920082581AE138B50400AA2057
:1013700080002518280000F07DFBA52080002018A3
:1013800001210160418B4160017DC806C00E03D080
:1013900002280BD005D30EE02900200000F052F9FE
:1013A0000EE02900200000F095FA09E02900200055
:1013B00000F0BAFA04E0802001402000FFF7EAFACA
:1013C000002032BD38B504001000A5229200A318F9
:1013D0000A002CD11968032920D1B02149006118D5
:1013E0004A680D68AA420BD2AB1A0B60934200D236
:1013F0001A0092B20100200000F09FFB002032BDD5
:10140000196A0869002805D0187A032802D120003B
:1014100009698847200000F094FBEFE70529EDD12A
:101420000020186000212000FFF7B4FAE6E71A6AEE
:101430009069002806D0187A032803D12000926909
:101440009047DBE7022032BDF8B504001000A5226A
:101450009200A5180A0049D129680026022937D12F
:10146000216A626A00928A4207D28A1A226292B282
:101470000100200000F04CFB11E0E7693800114644
:1014800000F078FB002911D1009887420ED36868DC
:1014900087420BD20022200000F03AFB6E6000234E
:1014A000002200212000FFF7A7FA19E0296AC86886
:1014B000002805D0287A032802D12000C96888476F
:1014C00080212000FFF766FA200000F046FB07E0CD
:1014D000042901D0002903D180212000FFF75AFA06
:1014E000287B012800D12E730020F2BD2A6A5069A2
:1014F000002806D0287A032803D12000526990479B
:10150000F2E70220F2BD70B5040040230022002162
:10151000FFF72BFAAC20400020180125056040267B
:10152000C6604023002280212000FFF71EFAA5613B
:101530006662A5208000221815720020106060608D
:101540001061506A002805D06168C9B22000126A93
:1015500052689047002070BD017400207047A72199
:101560008900401801784170042101700020704703
:10157000A721890040180178042901D14178017020
:101580000020704780B5A721890041180A78032AF6
:1015900004D18969C969002900D08847002002BDAB
:1015A00052689047002002BD80B500F0FFFA00F0BD
:1015B00019F88020C0030A490A6802430A600A68D1
:1015C000104000900098802080020A6802430A6060
:1015D000096808400090009800F0F8FAFEE7000063
:1015E0001410024030B595B0302109A800F01AFB64
:1015F000684600210022002300241EC0142100F0B0
:1016000011FB012009900A90022411940004129009
:10161000000113900025149509A800F00BFB07208A
:1016200000900194029503950121684600F0CEFCDC
:10163000200404908020089004A800F081FD15B0DB
:1016400030BD7047F8B504000E00A72080002518B3
:1016500030786021014009D0202901D040292AD1C9
:1016600031002000AA69926890472EE100200227ED
:10167000717809291FD802A24900525A974400BF25
:1016800006023402B0012E02B00122011400B001A2
:10169000E4016A01694608807088010A012900D1C5
:1016A00079E002296BD003292ED0062924D00729FE
:1016B00001D1207C002800D0BAE06846A969096BF6
:1016C00088470721417069460988002910D0F188B0
:1016D000002910D069460988F288914200D911008A
:1016E0006A46118069460A880100200000F002FA6B
:1016F000F0880028B9D1E5E0207C002853D1684665
:10170000A969496B8847DEE7C0B205284BD802A11A
:10171000095C49008F4400BF2B231B130B0368692E
:101720008269002A06D06946207C9047CBE7686929
:101730004269002A7CD06946207C9047C3E76869EB
:101740000269002A74D06946207C9047BBE768692B
:10175000C268002A6CD06946207C9047B3E768696C
:101760008268002A64D06946207C9047ABE76869AC
:101770004268002A5CD06946207C9047A3E7A969AB
:10178000207C0028684603D1896A884747709AE719
:10179000C96A8847FAE76946207C6A6912689047F7
:1017A00091E7B088002843D1F088002840D17088A4
:1017B00080283DD24006400E6946087028780328EC
:1017C00036D068460078A870684601782000FFF798
:1017D00001F9200000F0B5F968460078002801D032
:1017E0002F7072E0012028706FE07188384A117004
:1017F00011780A00022A1BDA2B78022B1DD0032B4A
:1018000026D1002905D12F7060602000FFF7A8FDC8
:1018100058E061688A4255D0C9B22000FFF7A0FDA8
:101820002B48017861602000FFF78CFD022849D128
:101830003100200000F032F947E0002942D0626018
:10184000032028702000FFF77DFD0228F0D039E04A
:101850003100200000F022F91D4801782000FFF738
:101860007FFD32E0F1880129E2D12978491E012962
:1018700004D9891EDCD10122211D14E0A0600122BF
:10188000210008310FE02878401E0228D0D8F088C7
:101890000228CDD10120A968002900D00320E060F2
:1018A000022221000C31200000F024F90DE07088A4
:1018B000012805E02978491E0229B9D87188012933
:1018C00003D1A860200000F03CF90020F2BD000028
:1018D000A812002038B505000C00207860210140D6
:1018E00003D0202901D0402918D1A72080002A1830
:1018F0001078401E022811D8A088C0B202280DDA44
:1019000021002800926992689047E188002909D156
:10191000002807D1280000F014F903E02100280076
:1019200000F0BCF8002032BDF8B504008B88DBB2B3
:101930000878A7229200A21860256026064008D0E9
:10194000202E01D0402E78D12000926992689047D5
:1019500076E00540202D04D12000926992689047DE
:10196000F2BD7F204D78002D37D0012D15D0032DED
:1019700063D11078022816D003285ED14888002849
:1019800027D1002B25D0802B23D0C888002820D138
:1019900019002000FEF7FEFF1BE01278022A02D099
:1019A000032A0DD049E0002B47D0802B45D01900E9
:1019B0002000FEF7EFFF80212000FEF7EBFF3FE065
:1019C000498800293CD11900014202D02000FEF7CD
:1019D000EAFF200000F0B5F832E018401425684313
:1019E0002618AA20400035181800802738406F4676
:1019F000387000201278022A02D0032A11D01CE08D
:101A0000002B01D0802B18D169460978002902D01B
:101A10003100143100E029000860200000F06AF86D
:101A20000EE01A07120F14277A43A2186F463F7868
:101A3000002F07D09269002A0ED1200000F02EF866
:101A40000020F2BDAC2676009259002AF5D0002B7A
:101A50000CD0802B03D109E035001435F7E71900CD
:101A60002000FEF7A9FF002800D0012028600222F4
:101A70002900D2E70A7802704A7842708A78CB78D7
:101A80001B02D21842800A794B791B02D21882803D
:101A90008A79C97909025118C180704710B50400CC
:101AA0008021FEF777FF00212000FEF773FF10BDB5
:101AB000002800D1704770B504000023002501E024
:101AC0006D1C641C2678002EFAD12D06EC0DA41C8A
:101AD000148012780A7003224A70022206E0D5B2FE
:101AE0004C55401C521CD5B24B55521C0478002C4E
:101AF000F5D170BD10B513000222A524A400025137
:101B0000C36103620A000021FEF76DFF002010BDD3
:101B100080B513000A001BE010B513000322A524B2
:101B2000A4000251AE2252008218136053600A00D2
:101B30000021FEF761FF002010BD80B513000A00F0
:101B400012E080B50421A5229200815000230022DA
:101B50000021FEF748FF002002BD80B50521A52227
:101B600092008150002300220021FEF745FF002053
:101B700002BDFEE7094214D088420FD30122030CB4
:101B800001D100041204002300185B418B4200D3F2
:101B90005B1A5241F8D31900100070470100002071
:101BA000704708B500F052FB08BDFEE780B5064857
:101BB000016810220A430260002000F049FB00F097
:101BC00069FB002002BD00000020024010B5114C4E
:101BD000002211492000FFF78FFB002801D0FFF7FA
:101BE00030FD0E492000FFF79EFB002801D0FFF7D3
:101BF00028FD0B49200000F09DFC002801D0FFF7D4
:101C000020FD2000FFF799FB002801D0FFF719FD08
:101C100010BD00BF50090020300100201C00002032
:101C200020010020002200BF094202D0491E425478
:101C3000FCD17047FEB506001BD0B04C3078C00711
:101C400019D58027BF0260680C21014004290BD000
:101C5000780861680C220A40082A47D16168C022CE
:101C600052020A40824241D12068074003D0706886
:101C7000002800D19FE1307880071FD5F827FF4367
:101C800060680C2101400CD060680C2101400829DB
:101C90005ED16068C021490201408020000281427B
:101CA00056D12068800703D5F068012800D082E172
:101CB000206807403069C000384320603078000752
:101CC00077D50227F0690028606A63D001210143BB
:101CD000616200F05FFC0500606A384069D100F085
:101CE00059FC401B0228F7D90320FEBD7368012B65
:101CF00009D0B349B34A002B09D0052B07D121687D
:101D000082000A43226021680843206005E02068C1
:101D100002402260206801402160706800280BD0DA
:101D200000F038FC050020683840A4D100F032FCF7
:101D3000401B6528F7D3D7E700F02CFC050020688E
:101D4000384098D000F026FC401B6528F7D3CBE73D
:101D5000F068002820680ED001210143216000F0C6
:101D600019FC050020688007A2D400F013FC401B7A
:101D70000228F7D9B8E701218843206000F00AFC67
:101D800005002068800799D500F004FC401B02285C
:101D9000F7D9A9E701218843606200F0FBFB050049
:101DA000606A384005D000F0F5FB401B0228F7D9E7
:101DB0009AE704273068384062D000200190B806C6
:101DC000E169014008D1E1690143E161E16908404D
:101DD00000900098012001907B480068C00512D453
:101DE00079480068A10D01437748016000F0D2FBFB
:101DF000050075480068C00505D400F0CBFB401B0A
:101E00006528F6D370E7B068012808D0002801D112
:101E1000206A09E00528206A06D138432062206A3A
:101E200001210143216205E0012188432062206AEB
:101E3000B8432062A4480090B06800280CD000F09D
:101E4000A9FB0500206A800713D400F0A3FB401B08
:101E500000998842F6D347E700F09CFB0500206A12
:101E6000800706D500F096FB401B00998842F6D308
:101E70003AE70198002803D0E06994490140E16104
:101E80003078C0061DD57069F825ED43012837D19B
:101E9000606B07436763606B01210143616300F07E
:101EA00079FB0700606B800705D400F073FBC01B53
:101EB0000228F7D918E7606B0540B069C0002843D5
:101EC0006063306A002878D061680C220A40082AD2
:101ED0005CD08027BF0489490228206848D101408E
:101EE000216000F057FB05002068384022D000F048
:101EF00051FB401B0228F7D9F6E600BF0010024054
:101F00000421C9438842606B02D101406163D2E77A
:101F100007436763606B01218843606300F03AFB0D
:101F20000500606B8007CCD500F034FB401B022815
:101F3000F7D9D9E6E06A0F218843F16A0143E162EB
:101F400060686F490140B06A0843716A014361608B
:101F5000206879080143216000F01CFB050020681F
:101F600038402AD100F016FB401B0228F7D9BBE607
:101F70000140216000F00EFB0500206838401CD0B5
:101F800000F008FB401B0228F7D9ADE6012812D06B
:101F90006068E16AC02252020240736A9A420AD122
:101FA0000907090FF26A914205D1F0218903014026
:101FB000B06A814201D00120FEBD0020FEBD0000BC
:101FC000FFFFFBFFFFFFFEFF00700040F8B50400BD
:101FD00060D000914B480068C107C90F009881424A
:101FE0000CD24848016801229143009A0A430260DA
:101FF0000068C107C90F009881424BD12168424D4A
:10200000022001420CD0490704D56968E022D200C1
:102010000A436A606968F0229143A2680A436A60D1
:1020200001272168394025D06168012902D128683B
:10203000800303E0022903D12868800103D429E04A
:102040002A68104026D068680322904301436960E3
:1020500000F0A0FA060068680C210140606880006A
:10206000814207D000F096FA801B17498842F2D3CC
:102070000320F2BD2348009902683A4091420BD2F6
:102080000168B943009A0A4302600068074000985B
:10209000874201D00120F2BD2078400705D568684D
:1020A0001A490140E0680843686000F011F81849D7
:1020B0006A681206120F895CC84016490860002041
:1020C00000F0C6F80020F2BD89130000FFFFFFEF0B
:1020D00030B511490C6811480C222240082A0CD155
:1020E0000F2200BF0EA3A50C15405D5D10A3896AE9
:1020F0000A40995CFFF73EFD684330BDFFFFFFFEDD
:10210000FF7FC2FF0020024000100240FFF8FFFFE7
:10211000182800080C0000200410024000127A0069
:1021200002030405060708090A0B0C0D0E0F101018
:102130000102030405060708090A0B0C0D0E0F1017
:10214000F8B504003B4D2068C00356D50020009030
:10215000802040052968014008D129680143296091
:10216000296808400090009801200090324F38689C
:10217000C00510D43868A90D0143396000F00AFA8F
:1021800006003868C00506D400F004FA801B6528F4
:10219000F7D30320F2BDC020800069680140274FBB
:1021A00000291ED06268104081421AD06868384009
:1021B0006968802252020A436A606968204A0A40BC
:1021C0006A606860C0070CD500F0E4F90600686832
:1021D000800706D400F0DEF9801B1A498842F6D346
:1021E000D7E768680740606838436860009800284F
:1021F00003D028681449014029602078C00705D51C
:10220000686903218843A1680143696120788006D9
:1022100005D5686910218843E16801436961206838
:10222000800305D56869802188432169014369617C
:102230000020F2BD1C10024000700040FFFCFFFFB8
:10224000FFFFFEFF89130000FFFFFFEF7047FEE76F
:1022500038B505000D4CFA2080002178FFF78AFC84
:1022600001000B480068FFF785FCFFF729F80028FC
:102270000AD1042D08D2002229000020C043FFF714
:1022800012F8A560002032BD012032BD0000002000
:102290000C00002081B001200B490A6802430A604B
:1022A0000A68104000900098802040054A68024368
:1022B0004A6049680840009000980448016810226C
:1022C0000A43026001B0704718100240000001404C
:1022D000F8B50400002500270126207C002808D13D
:1022E0007302022281212000FEF73FFBE6627302A7
:1022F00007E04023022281212000FEF736FBE66240
:102300004023022201212000FEF72FFBB6204000CF
:1023100026500823032282212000FEF726FB266494
:1023200087208000FEF778FBAE21890061180860E5
:10233000002801D1012714E00600486800688047A2
:10234000812080003018056145610268207C0028EA
:1023500002D180239B0000E0402301212000FEF7F2
:102360004BFB3800F2BD38B505008121FEF709FBB3
:102370000024EC6201212800FEF703FBB620400098
:102380002C5082212800FEF7FCFA2C64AE2080003D
:102390002D182868002806D068684068804728689B
:1023A000FEF746FB2C60002032BDF8B505000C009E
:1023B000A72080002B18DF69002669460E7068464A
:1023C0004680217860220A4023D0202A3CD1E2882E
:1023D000002A18D06078090609D539001B6A9B6865
:1023E0009847E28839002800FFF784FB31E080211C
:1023F000890079180870E0884870E2883900280060
:10240000FFF78AFB25E0210060781B6A9B689847EC
:102410001FE06078002804D00A2809D00B2810D0CB
:1024200012E0187803280FD1022200A9891C04E0C9
:102430001878032808D1012269462800FFF75AFBC3
:1024400007E01878032804D021002800FFF726FBB6
:1024500002263000F2BDF8B50400AE20800020183E
:1024600005688268002D1DD068460170142048431D
:102470002618F069002700280FD049015118896BF0
:10248000FFF778FB002908D1F76100230022684696
:1024900001782000FEF7A7FA02E0852080002F5087
:1024A0000020F2BD0220F2BD70B5AE229200841869
:1024B0002568B43AAE18FEF7A8FAB0602068002884
:1024C00008D083208000291830686268D26890475D
:1024D000002070BD022070BD10B5AE2189004018EB
:1024E00001684368002B0AD0802080000C182078F7
:1024F000FF2804D062789B689847FF202070002056
:1025000010BD4321018007487047432101800648E0
:10251000704743210180054870470A210180044823
:10252000704700009800002054000020DC000020CC
:102530001000002002000220002903D0AF208000FC
:10254000115000207047AE239B00C058B03BC0180C
:102550000160826000207047AE2292008058B43A39
:1025600081500020704780B5AE2189004158002974
:102570000ED0812292008A58017C002902D180234A
:102580009B0000E040230121FEF736FA002002BD47
:10259000022002BD01484068704700BF00000020D3
:1025A000122008801748704704200880164870479A
:1025B00010B50A0024A01EE010B50A00134C21003B
:1025C00027A01AE038B51A2008801148456801682C
:1025D000806808180F4C09D00822A11C00F020F8D0
:1025E000042221001231280000F01AF8200032BD28
:1025F00010B50A001FA0054C2100FFF759FA200072
:1026000010BD00004C01002060010020A810002037
:10261000ACF7FF1F6401002010B50A0018A0EAE71C
:1026200070B5002300240BE0373605E065004D1936
:10263000060F0A2EF8D230362E7000016B70641C23
:102640009442F3DB70BD000053544D333220566981
:10265000727475616C20436F6D506F72740000006E
:1026600053544D6963726F656C656374726F6E6904
:102670006373000043444320436F6E666967000044
:1026800043444320496E74657266616365000000CF
:1026900038B50F4D0F4C0022FA2080002118280079
:1026A000FFF751FF21002800FFF756FF002032BD41
:1026B000002070470020704710B50100044C200036
:1026C000FFF74AFF2000FFF74EFF002010BD00007B
:1026D0005009002080010020094880F30888042068
:1026E0000168090E1F22914205D1064801210160AF
:1026F0000548002101600548804705480047000063
:10270000B0160020181002400000014015280008F3
:102710002928000870B40123002413E00168001D7B
:10272000194202D04D466D1E49190C60091D121F39
:10273000042AFAD20D00960701D50C80AD1C1A4070
:1027400000D02C700268001D002AE7D170BC7047D1
:1027500010B5074979441831064C7C44163404E01E
:10276000081D0A68891888470100A142F8D110BDE8
:1027700008000000240000009DFFFFFF2C11000056
:102780008001002000000000BFE2FFFFC600000043
:10279000A6010000000000207047FEE77047704768
:1027A00080B500F009F801BD80B50248FDF7F0FCE6
:1027B00001BD0000140C002002484168027889180D
:1027C000416070470000002000F00DF8002801D0A3
:1027D000FFF7BEFF00BF00BF002000BF00BFFEF735
:1027E000E3FE00F002F80120704780B500F002F827
:1027F00001BDFEE70746384600F002F8FBE7FEE7BA
:1028000080B500BF00BF024A11001820ABBEFBE735
:1028100026000200704700000000000000000000D9
:10282000010203040607080900BF00BF00BF00BF84
:10283000FFF7CAFFFEE7FEE7FEE7FEE7FEE7FEE77B
:10284000FEE7FEE7FEE7FEE7FEE7FEE7FEE7FEE760
:10285000FEE7430100012204081005127A000A066F
:1028600000020B2240181007D1220008672300083D
:10287000AB04211F1003D9240008570443A92410D6
:10288000610110030B2500080304121304121B043A
:10289000100809024300020100C032095613010268
:1028A0000B101E0524001001052401000104240260
:1028B000020524060001070582030800100904012F
:1028C00000020A4E1002070501027B200107058164
:1028D00007F228004422400722810720010009074F
:1028E00044F22C0444100391260008B10412B504EC
:1028F00012B90412A1E012A90412B90412B104120F
:10290000C50412F10412191C12124310060202002F
:1029100040830440577917020345F0050804030972
:05292000041A03000190
:04000005080028299E
:00000001FF
