:020000040800F2
:10000000B0040020D1180008991800089B180008B7
:100010009D1800089F180008A118000800000000A3
:10002000000000000000000000000000A31800080D
:10003000A518000800000000A7180008A91800086B
:10004000ED180008F1180008F5180008F918000864
:10005000FD18000801190008051900080919000811
:100060000D190008111900081519000819190008C0
:100070001D19000821190008251900082919000870
:100080002D19000831190008351900083919000820
:100090003D190008411900084519000849190008D0
:1000A0004D19000851190008551900085919000880
:1000B0005D19000861190008651900086919000830
:1000C0006D190008711900087519000879190008E0
:1000D0007D19000881190008851900088919000890
:1000E0008D19000891190008951900089919000840
:1000F0009D190008A1190008A5190008A9190008F0
:10010000AD190008B1190008B5190008B91900089F
:10011000BD190008C1190008C5190008C91900084F
:10012000CD190008D1190008D5190008D9190008FF
:1001300038B504000ED004F13405287820B9002128
:100140002177204600F0FBFC03202870204600F0B9
:100150000AF808B1012032BD686000212163012046
:100160002870002032BD2DE9F8418FB004460020F0
:10017000762603900490059006900790089603A9B0
:1001800083B06846182200F025FD0EBC206800F000
:100190002DFD00285FD1DFF8445528600027206836
:1001A00000F03FFD0120286000210091002620681A
:1001B00000F0D6FD002804F134054FF080584ED1F0
:1001C000206800F0E6FD70B16E61206800F0C8FDA7
:1001D000002844D1686901280FD12068002100F06F
:1001E00015FEE0B909E001206861F6E700F0F4FBD4
:1001F00007460098401CFE0F00904FF6FF700099D4
:1002000081420ED26EB92068002100F0FFFD30BBA4
:100210002068DFF8CC1400F004FE0028E6D0404649
:1002200014E00099814228BF4FF080700ED217F081
:100230008047384618BF012028610121ADF80C1015
:10024000206800F0F6FC68B94FF080600121297049
:100250006A6810436860012010B0BDE8F081002892
:10026000EBD0F3E72869032835D0206800F001FEC1
:100270000028EBD100F0B0FB286400F04AF8686475
:10028000082100F047F8A8640C2100F043F8E86466
:10029000286903281FD0206803A900F008FE002861
:1002A000D4D12869032816D0BDF80C10E9610904DF
:1002B000206800F0EDFD0028C8D100F08DFB286318
:1002C00000F027F86863082100F024F8A8630C21E7
:1002D00000F020F8E86300F01CF8000DA86104A904
:1002E000204600F0FFF9002899D1EA69206812043D
:1002F000002300F025FD0028A8D183B0211D684609
:10030000182200F067FC0EBC206800F06FFC002093
:10031000A2E70421206800F0A1BC2DE9F04F87B0CE
:1003200005460C469246984600F026FF0090264669
:1003300005F134071CB9786840F00060C8E03878EF
:10034000012840F0C2800021796008EB0A02B86AF7
:10035000904202D200F0ABF9BBE0032038702A686B
:1003600000F09DF9286818BF4FEA4A2A00F08FFC78
:1003700010B100F0BBF8ADE04FF0FF314FEA48227A
:100380000191029290210222039104920021012204
:100390000591069201A900F096F9B8F1020F06D373
:1003A000022028635146286800F087FC05E0012000
:1003B00028635146286800F075FCE0BBDDF808A012
:1003C000DDF840B02868416B40F22A32114226D154
:1003D000406B01040ED5BAF1000F0BD0AAF1200A30
:1003E0004FF00809286800F016FC00F076F8B9F123
:1003F0000109F7D100F0C0FE0099401A584502D219
:10040000BBF1000FDED1286884630120796841F0D8
:100410000041796038700021296303205AE0416B64
:10042000CA050ED5B8F1020F0BD33969032908D0DC
:1004300000F071FC28B129688C637A6810437860F9
:100440003BE02868416B0A0704D58463786840F074
:1004500008000EE0416B8A0704D58463786840F099
:10046000020006E0416B8A0609D58463786840F093
:1004700020007860012139700020286329E0DDF830
:1004800000902868416B8A021CD5BAF1000F19D080
:1004900000F0C1FB00F021F800F06EFEA0EB0900B7
:1004A0005845AAF1040A02D2BBF1000FE9D128682D
:1004B0008463796841F0004179600120387000213F
:1004C000296307E000F0E4F804E0786840F00050A9
:1004D0007860012007B0BDE8F08F3070010A7170BC
:1004E000020CB270000EF070361D704729688C63E4
:1004F0007A68104378600120387070472DE9F84F12
:1005000088B006460C461546984600F035FE019028
:10051000A24606F134071CB9786840F00060B2E0EA
:100520003878012840F0AC800021796008EB0502A2
:10053000B86A904202D200F0BAF8A5E00320387001
:10054000326800F0ACF8306818BF6D0200F09FFB15
:1005500018B13168FFF7CBFF97E04FEA48220392CA
:100560004FF0FF3100220291059206929021012264
:100570000491079202A9306800F073FBB8F1020FF2
:1005800006D3202030632946306800F0ACFB05E03C
:10059000102030632946306800F09AFB002849D1CA
:1005A000039DDDF848B03068416B40F21A321142C9
:1005B00034D1406B41041ED5EDB1203D4FF0080908
:1005C0001AF8010B009001461AF8010B41EA0021CC
:1005D000009108461AF8011B40EA014000901AF801
:1005E000011B40EA016000906946306800F014FB8E
:1005F000B9F10109E4D100F0BFFD0199401A584555
:1006000002D2BBF1000FCED130688463012079683B
:100610007960387000223263032036E0416BCA05EE
:100620000DD5B8F1020F0AD33969032907D000F0BC
:1006300072FB20B1316800F049F8316325E0306881
:10064000416B0A0704D58463786840F008000EE027
:10065000416B8A0704D58463786840F0020006E0A5
:10066000416BCA0609D58463786840F01000786051
:10067000012139700020306306E000F009F804E041
:10068000786840F000507860012009B0BDE8F08F34
:1006900040F23A5181630120387000207047DFF842
:1006A0003443D1624FF4007138690128704779688A
:1006B00041F00071796070470491059269462068A5
:1006C00000F0CFBA6946286800F0CBBA8C630021ED
:1006D0007A6810437860012038707047A00030427B
:1006E000000010C130B500F134031A6B920F0A708C
:1006F0001C6BA40E04F00F044C701A6B120E02F067
:1007000003028A701A6B120CCA701A6B120A0A71F1
:100710001A6B4A715C6B240DCC804FF400745A6BD9
:10072000120C02F00F020A725A6BD20B02F0010295
:100730004A725A6B920B02F001028A725A6B520B88
:1007400002F00102CA725A6B120B02F001020A7324
:1007500000224A731A69002A40F08D80586B40F6D7
:10076000FC7202EA8002986B42EA90720A610122EE
:10077000986BC00E00F007000875986B000E00F033
:1007800007004875986B400D00F007008875986B5E
:10079000800C00F00700C875986BC00B00F00700D4
:1007A00008760869401C18620D7E05F00705AD1C2F
:1007B00002FA05F5684318620D7A05F00F05AA40A4
:1007C0005A62520A50439862DC62986B800B00F0C8
:1007D00001004876986BC00900F07F00887693F896
:1007E000380000F07F00C876D86BC00F0877D86B50
:1007F000400F00F003004877D86B800E00F0070030
:100800008877D86B800D00F00F00C877D86B400D4B
:1008100000F0010081F8200001F1210000210170A9
:10082000DA6B120C02F0010242700122D96BC90B83
:1008300001F001018170D96B890B01F00101C170D8
:10084000D96B490B01F001010171D96B090B01F062
:1008500001014171D96B890A01F003018171D96BE2
:10086000090A01F00301C171D96BC1F3460101729C
:100870004272002030BD012A0DD1586B9A6B0004E2
:1008800000F47C1040EA1240086108695C62401C78
:100890008002186297E70068DFF86C11816301201D
:1008A000596841F080515960187030BD426C0A603F
:1008B000836C4B60C26C8A60036DCB60426D0A61D1
:1008C000836D4B61C26D8A61006EC8610020704704
:1008D0002DE9F841074607F1340489B003200E469C
:1008E00020702169032918BFB6F5805F4AD0B6F59C
:1008F000006F4FF080654FF400681CD100F0FDF8E8
:10090000386800F06AF8800148BF454632D469462D
:10091000384600F07BF8E8B9019841032AD500F089
:10092000E7F8050026D13868022100F090FA0500AA
:1009300020D100251EE00EBB00F0DFF8386800F083
:100940004CF8800148BF454614D46946384600F04B
:100950005DF808B105460DE00198C1030AD500F025
:10096000C7F8050006D13868002100F070FA0500CC
:1009700008BF002560680543656007E0606840F0D7
:10098000006002E0606840F0805060603D68606830
:1009900020B11D49A9630120207017E078680390F9
:1009A0001822B9680491F9680591069603A9786937
:1009B0000790BE69089683B0684600F00BF90EBC3C
:1009C000284600F013F90125257000200AB0BDE883
:1009D000F0810000FF0540002068002100F03EB9D2
:1009E00038B504460025216D2068090400F0A1FAFD
:1009F00018B1A16B0843A06303E0FFF7EDFFC0F35C
:100A00004325284632BD0000FF054000F8B588B0F8
:100A100004460D4600F0B0FB064600F06EF8206874
:100A2000082100F034F9002700285FD1216D2068EB
:100A300000F060F8002859D1082203924FF0FF31EE
:100A40000222029105923021012204910697079219
:100A500002A9FFF734FE206800F0FBF9002845D119
:100A60002068416B40F22A421142416B0FD18A0249
:100A700004D500F0D0F84DF827007F1C00F07CFB77
:100A8000801B10F1010FEBD14FF000402EE00A0760
:100A900048BF082108D4416B8A0748BF022103D40C
:100AA000416B8A0603D52021816308461EE040F28F
:100AB0003A5181630198010201F47F01020A41EA7F
:100AC000006102F47F42114341EA106129600098FD
:100AD000010201F47F0141EA0061000A00F47F4055
:100AE0000143009841EA10616960002009B0F0BD3F
:100AF000E1693868090400F089B9082200216846D4
:100B000000F040BB2D4881B0016841F00101016057
:100B1000026802F0010200920099426842F080529D
:100B20004260406800F080500090009824480168BE
:100B300021F0E06141F00071016001B0704718B52B
:100B400085B0044610220021684600F01BFB216896
:100B50001C48814230D11C48016841F48061016029
:100B6000026802F4806204920499426842F0100222
:100B70004260416801F0100104910499426842F01A
:100B8000200242604FF4F851406800F020000490C9
:100B9000022204980D4800910192032103916946B5
:100BA00000F0FAFA0420022100900191032203923E
:100BB0006946074800F0F0FA06B010BD1810024070
:100BC0000400014000800140141002400010014068
:100BD000001401404AB1000011F8013B521E00F818
:100BE000013B1CBF11F8013BF8E770470EB44368A6
:100BF000DFF82015009A0B4001991343029A0B432A
:100C000003991343049A0B43059913430B43436021
:100C1000002003B0704737E00968C0F8801000205A
:100C2000704780B503210160022000F09DFB002089
:100C300002BD006800F00300704730B50A688260AA
:100C4000C4680D694B688A68C9681D431543240B45
:100C50000D4345EA0434C460002030BD1430085808
:100C6000704710B50A6842624B688362C46A8A683A
:100C7000CB6824F0F70414430A6949691C43144300
:100C80000C43C462002010BDD0F88000704718B536
:100C900085B000F03CF8102100F030F841F28832C5
:100CA00010216AE118B585B000F031F8112100F08B
:100CB00025F841F2883211215FE118B585B000F0C6
:100CC00026F8122100F01AF841F28832122154E17C
:100CD00018B585B000F01BF8182100F00FF841F2AC
:100CE0008832182149E118B585B000F010F81921B3
:100CF00000F004F841F2883219213EE101914FF4ED
:100D000080620021039104920446694695E74022DF
:100D100000910292704718B5402285B000F0A5F806
:100D20000C2100F004F8DFF8F0230C2125E10090FD
:100D3000019103904FF480620492694620467CE75B
:100D400018B585B0072100920191402200F078F893
:100D500004466946FFF771FF41F2883207210CE132
:100D600018B585B004460020009001900290FFF76E
:100D7000E0FF00F03FF80846411E30B1606B02060C
:100D8000F9D5C520A063002001E04FF0004006B077
:100D900010BD18B50821402285B004460191029289
:100DA0004FF4D570002100900391FFF7C3FF00F0CE
:100DB00021F80846411E60B1606B10F0450FF8D075
:100DC0000005F6D4616B480706D50421A163042011
:100DD0000EE04FF000400BE0606BC10702D5012030
:100DE000A06305E0606B410644BF4020A063002083
:100DF00006B010BDDFF824231168C9084FF47A73D8
:100E0000B1FBF3F141F288304143704718B585B02A
:100E1000FFF77DFF3721FFF771FF41F2883237215D
:100E2000ABE018B5044685B0DFF8F4020143009149
:100E300040222921019100F003F86946204683E011
:100E40000292002103914FF480620492704718B51A
:100E50008AE018B5402285B000F007F83321FFF78B
:100E600066FF41F28832332187E004460292002077
:100E7000704718B5C02285B0FFF7F7FF0221009038
:100E8000019103904FF4806204926946204607E086
:100E900018B585B0C02200910292092100F05BF8DC
:100EA000FFF7CBFE204600F0FBF806B010BD30B5D2
:100EB000402285B004460D46029200200321FFF730
:100EC00036FFFFF797FF0846411E60B1606B10F0D8
:100ED000450FF8D00005F6D4616B480706D504210C
:100EE000A163042023E04FF0004020E0606BC107C5
:100EF00002D50120A0631AE02069C0B2032818BF00
:100F0000012014D1C520A063606910F4604F03D1A3
:100F1000000C288000200AE0410448BF4FF4005034
:100F200005D400044CBF4FF480504FF4803005B01E
:100F300030BD18B585B0FFF7EAFE0D21FFF7DEFEE4
:100F400041F288320D2118E0FFF777FE204600F0CD
:100F5000C7F806B010BD01914FF4806200210391E3
:100F6000049204466946704785B0FFF7D0FE06211B
:100F7000FFF7C4FE41F288320621204600F002F855
:100F800006B010BD38B5654C25680346ED084FF432
:100F90007A70B5FBF0F042431046421E60B1586BC8
:100FA00010F0450FF8D00005F6D45A6B500706D55F
:100FB00004219963042032BD4FF0004032BD586BCC
:100FC000C20702D50120986332BDC5209863186915
:100FD000C0B2884201D0012032BD00211846FFF77F
:100FE0003DFE504A104201D1002032BD02D54FF0E3
:100FF000007032BD410001D5402032BD810001D5D5
:10100000802032BDC10002D54FF4807032BD010195
:1010100002D54FF4007032BD410102D54FF480601B
:1010200032BDC10102D54FF4006032BD010202D5CC
:101030004FF4805032BD410202D54FF4005032BD12
:10104000810202D54FF4804032BDC10202D54FF477
:10105000004032BD410302D54FF4003032BD810360
:1010600002D54FF4802032BDC10302D54FF40020D9
:1010700032BD010402D54FF4801032BD410402D5C7
:101080004FF4001032BD810402D54FF4800032BD10
:10109000000702D54FF4000032BD4FF4803032BD5E
:1010A0001E490A68D2084FF47A73B2FBF3F241F298
:1010B00088314A4311464A1E49B1416B11F0450F30
:1010C000F8D00905F6D4426B510701D52FE02BE08B
:1010D000416BCA0703D501218163012070472AE0D3
:1010E0000E490A68D2084FF47A73B2FBF3F241F268
:1010F00088314A4311464A1E49B1416B11F0450FF0
:10110000F8D00905F6D4426B510701D50FE00BE08A
:1011100011E000000081FFFF00E1F5050C00002058
:101120000000108008E0FFFD4FF0004070470422EF
:10113000826304207047C52181630020704730B46A
:10114000002513E050F8042BD30744BFA9F1010395
:101150009A18091F042942F8045BFAD213468C0737
:1011600044BF15809B1CC90748BF1D7050F8041B65
:101170000029E7D130BC704701484068704700BF84
:101180000000002010B5044610460A4601462046DD
:1011900000F0FEF8204610BD2DE9F8474FF0000E94
:1011A0000024624A624BDFF88C814FF00F098246BF
:1011B0000CE0D7683840D06006E095604D68AD021D
:1011C000F7D5D0680743D7600EF1010E0F6837FAE4
:1011D0000EF000F0A980012000FA0EF63740B74269
:1011E000F2D1486838B301281AD002281DD003284C
:1011F0002ED0112816D012281AD04F4DA8421CBF4D
:101200004E4DA84217D04E4DA8421CBF4D4DA8428E
:1012100011D04D4DA8421CBF4C4DA8420BD018E038
:10122000CC6816E0CC68241D13E0CC68083410E0CC
:10123000CC680C340DE0886808B9042409E0012862
:1012400019BF0824CAF814600824CAF8106000E026
:101250000024B7F5807F03D250464FEA8E0C05E09C
:10126000AEF108050AF104004FEA850C056809FA99
:101270000CF6B54304FA0CF6354305604868C00027
:10128000A2D5D8F8000040F00100C8F80000D8F856
:10129000005005F0010500954FEA8E0500984FEAD1
:1012A0009E0053F8206005F00C0C09FA0CF526EAB4
:1012B0000505274EB24508BF002618D0254EB24579
:1012C00008BF012613D0244EB24508BF02260ED017
:1012D000224EB24508BF032609D0214EB24508BFB1
:1012E000042604D01F4EB2450CBF0526062606FA7A
:1012F0000CF6354343F82050F8434D68ED0315686C
:101300004CBF3D43054015604D68AD0355684CBF6B
:101310003D43054055604D689668ED024CBF47EA75
:10132000060500EA060548E7BDE8F187000401402C
:1013300008000140181002400000111000001210B7
:1013400000002110000022100000311000003210B7
:1013500000080140000C0140001001400014014051
:1013600000180140001C014038B50446FFF704FF97
:1013700014F1010F054602D0044908780419FFF75B
:10138000FBFE401BA042FAD331BD00BF000000208D
:101390004018491C1CBFB1F1010100F8012DF9D121
:1013A000704730B40EE00268436802440830DC073E
:1013B00044BFA9F10104E31852F8045B43F8045B4D
:1013C000091FF9D150F8041B0029ECD130BC70473B
:1013D000324981B00A6802430A60096808400090F7
:1013E000009801B0704780B500F064F800F016F87E
:1013F0001020FFF7EDFF2020FFF7EAFF0420FFF7A2
:10140000E7FF274827490160002242608260C260EE
:1014100002614261826100F05FF8FEE780B5224818
:101420000168C908C90041F00201016000681F4855
:10143000016841F48031016001688903FCD542688C
:1014400022F47C1242F4E8124260016841F080719B
:10145000016001688901FCD5426822F0F002426017
:10146000416821F4E06141F480614160416821F408
:101470006051416041688908890041F00201416082
:10148000416801F00C010829FAD1094800F030F850
:10149000BDE80240002000F031B800001810024002
:1014A0001400002000800140002002400010024093
:1014B00000A24A0480B50748016841F010010160AC
:1014C000032000F048F8002000F018F8FFF71AFB9E
:1014D000002002BD0020024010B5034C0348211D2E
:1014E00000F09FF8207010BDA400002084180008B0
:1014F00001490860704700000C00002038B50D4D10
:101500000D4B2A7804464FF47A711868B1FBF2F259
:10151000B0FBF2F000F049F850B9102C08D20022CC
:1015200021464FF0FF3000F023F8AC60002032BDC0
:10153000012032BD000000200C0000200901020043
:1015400002D4244881547047234B02F00F021A44FE
:1015500002F8041C7047214B19684FF6FF02000285
:10156000114000F4E06008431D49084318607047CB
:1015700070B51A4B1C68C4F302230124C3F107059C
:10158000052D2EBF0F2504FA05F56D1E1E1D072E15
:1015900034BF0023DB1E2940994004FA03F3BDE861
:1015A00070405B1E1A401143C8E710B5401EB0F1F1
:1015B000807F01D3012010BD0A4C60600F214FF0E5
:1015C000FF30FFF7BBFF0021A16007202060002053
:1015D00010BD000000E400E018ED00E00CED00E0BC
:1015E0000000FA0510E000E070B50F4C657A034684
:1015F0000120012D14DC657A00206055607A04EB2F
:1016000080067360607A20440272607A421C6272C3
:10161000303008702F223A2048708A700020C8703D
:1016200070BD0022E0E700009800002010B5314CAA
:101630000120207000F064F805E010B52D4C012069
:10164000207000F075F818B9207800F0FE002070C6
:10165000207810BD38B500F023F800F075F80124AB
:1016600048B900F065F828B12846451E0028F8D191
:10167000012032BD0024204632BD38B500F010F8FC
:1016800000F072F8012448B900F052F828B1284659
:10169000451E0028F8D1012032BD0024204632BD6D
:1016A000084611461A46144B144D704710B51148A0
:1016B00088B014460278D30748BF032018D4032902
:1016C00015D8DFE801F01202070D684600F05CF85B
:1016D000069809E0684600F057F80798208004E073
:1016E000684600F051F807982060002000E00420D0
:1016F00008B010BD1000002000E1F505A086010033
:1017000038B500F047F8012801D0012032BD074C60
:101710002046FEF70DFD050006D14FF4006120467E
:10172000FFF7D6F800B10125284632BD140000208D
:1017300080B50448FFF754F9042801D1002002BD08
:10174000012002BD140000201CB5009300241346A4
:101750000A4601460348FEF7E0FD00B10124204699
:1017600016BD00BF140000201CB5009300241346D2
:101770000A4601460348FEF7C1FE00B10124204697
:1017800016BD00BF1400002001460148FFF78EB8C7
:101790001400002081B001208DF800009DF80000A9
:1017A00001B0704710B50E4A0E49106840F00100B4
:1017B000106053680C480B40536014680440146078
:1017C000116821F4802111604FF41F01506820F44A
:1017D000FE00506091604FF00060044A106010BD40
:1017E000001002400000FFF8FFFFF6FE08ED00E0E9
:1017F00010B5074979441831064C7C44163404E08E
:101800000A68081D114488470146A142F8D110BD5D
:10181000080000002800000027F9FFFF98000000E2
:1018200014000020000000007BFBFFFF14000000FC
:101830008C000000000000200000000000F00DF807
:10184000002801D0FFF7D4FFAFF300800020AFF3F2
:101850000080FFF7C8FD00F002F80120704700F09B
:1018600001B800000746384600F002F8FBE7000028
:1018700080B5AFF30080024A11001820ABBEFBE731
:10188000260002002D1600083B1600085516000819
:101890007B160008AD1600087047FEE7FEE7FEE77E
:1018A000FEE770477047704700F000B802494A6889
:1018B000087882184A60704700000020010000008C
:1018C00000000000100000000024F40001000000EF
:1018D0000148804701480047A5170008E1180008A3
:1018E000AFF30080AFF30080FFF7A8FFFFF7FEBF64
:1018F000FFF7FEBFFFF7FEBFFFF7FEBFFFF7FEBF1C
:10190000FFF7FEBFFFF7FEBFFFF7FEBFFFF7FEBF0B
:10191000FFF7FEBFFFF7FEBFFFF7FEBFFFF7FEBFFB
:10192000FFF7FEBFFFF7FEBFFFF7FEBFFFF7FEBFEB
:10193000FFF7FEBFFFF7FEBFFFF7FEBFFFF7FEBFDB
:10194000FFF7FEBFFFF7FEBFFFF7FEBFFFF7FEBFCB
:10195000FFF7FEBFFFF7FEBFFFF7FEBFFFF7FEBFBB
:10196000FFF7FEBFFFF7FEBFFFF7FEBFFFF7FEBFAB
:10197000FFF7FEBFFFF7FEBFFFF7FEBFFFF7FEBF9B
:10198000FFF7FEBFFFF7FEBFFFF7FEBFFFF7FEBF8B
:10199000FFF7FEBFFFF7FEBFFFF7FEBFFFF7FEBF7B
:1019A000FFF7FEBFFFF7FEBFFFF7FEBFFFF7FEBF6B
:1019B000FFF7FEBFFFF7FEBFFFF7FEBFFFF7FEBF5B
:1019C000FFF7FEBFFFF7FEBFFFF7FEBFFFF7FEBF4B
:0C19D000FFF7FEBFFFF7FEBFFFF7FEBFF2
:04000005080018E1F6
:00000001FF
