:020000040800F2
:1000000068040020E10E0008BD0E0008BF0E0008C5
:10001000C10E0008C30E0008C50E00080000000055
:10002000000000000000000000000000C70E0008F3
:10003000C90E000800000000CB0E0008CD0E00081D
:10004000150F0008190F00081D0F0008210F0008E8
:10005000250F0008290F00082D0F0008310F000898
:10006000350F0008390F00083D0F0008410F000848
:10007000450F0008490F00084D0F0008510F0008F8
:10008000550F0008590F00085D0F0008610F0008A8
:10009000650F0008690F00086D0F0008710F000858
:1000A00000000000750F0008790F00087D0F0008A0
:1000B000810F0008850F0008890F00088D0F0008C8
:1000C000910F0008950F0008990F00089D0F000878
:1000D000A10F0008A50F0008A90F0008AD0F000828
:1000E000B10F0008B50F0008B90F0008BD0F0008D8
:1000F000C10F0008B34981B00A6802430A60096869
:1001000008400090009801B0704730B591B000F001
:1001100075F900F0F5F80420FFF7ECFF2020FFF759
:10012000E9FF0120FFF7E6FF0220FFF7E3FF1822B7
:10013000002107A800F071F900F0C7F80220FFF7CE
:10014000D9FF02220192402100F0C4F89E4C9F4D3D
:10015000204600F089F902220192802100F0BAF8CD
:10016000204600F081F99A4C9A4A606840F40010E9
:100170006060606800F4001006900698296821F01D
:10018000800129600021E86820F0FE00E860079106
:1001900009910A9108924FF480610B914FF48042CB
:1001A0000C9207A9284600F0DFF9E86840084000F3
:1001B000E8602822296821F04001296007A8002171
:1001C00000F02BF900F081F82068834D40F4805056
:1001D0002060216801F48051069106980120FFF704
:1001E00089FF02220192102100F07EF80222019282
:1001F000202100F079F802220192402100F074F8E9
:1002000002220192802100F06FF84FF4827208926E
:1002100000214FF480220C92079109910A910B91D1
:100220000D910E910F910A22109207A96B4800F0D0
:100230000BFA6B486B49016000220A214260826020
:10024000C260026142618261C26102624262826294
:10025000C16243F2F22500F025FA0C22002103A826
:1002600000F0DBF80822002101A800F0D6F80422F3
:1002700000F02CF8606940F4800060610021039177
:100280007F22FF210591049203A9574C204600F0DC
:1002900087FA206DA84217D00021ADF808108DF81C
:1002A0000A1001AA0121204600F0A1FA0120002233
:1002B0008DF8000001218DF803208DF801106A46A9
:1002C000204600F0B9FA2565FEE7182200216846AD
:1002D00000F0A3B80091012203920492032102913D
:1002E000042205926946704700910022039204920D
:1002F00003210291052205926946284600F0B4B810
:1003000080B53A48016841F004010160026838494B
:1003100042F00102026000680A68364822F4C052C6
:1003200042F400620A60026842F4803202600268AD
:100330009203FCD50B6843F480730B60416B41F46E
:1003400000014163416B21F400014163416B41F4C1
:1003500080714163416B8905FCD5426B22F44032C8
:1003600042F480324263416B41F480014163816811
:1003700021F47D0141F405018160016841F0807143
:10038000016001688901FCD5826822F0F002826078
:10039000816821F4E0618160816821F460518160AD
:1003A000816841F003018160816801F00C010C2932
:1003B000FAD1114800F0B8FABDE80240002000F080
:1003C000B9BA00001C38024000040240005400404A
:1003D00020380240A08601000000024000300140A9
:1003E000100000200038004000280040003C02407F
:1003F00000700040003802400048E801032010B5BA
:1004000000F0C7FA002000F095FA0024002814BF7D
:10041000012400F007FB204610BD10B5044610462D
:100420000A460146204600F055FB204610BD30B478
:10043000002513E050F8042BD30744BFA9F10103B2
:100440009A18091F042942F8045BFAD213468C0754
:1004500044BF15809B1CC90748BF1D7050F8041B82
:100460000029E7D130BC7047F0B50B46024618684A
:1004700090FAA0F0B0FA80F60F24032541E0090AB3
:1004800000F050F8576A00F054F8506238E001204C
:10049000B040014034D05868176800F056F84FEA71
:1004A0004C0E00FA0EF0384310605868012818BF4F
:1004B000022809D19868976800F047F84FEA4C0E77
:1004C00000FA0EF03843906091FAA1FC1869D768E1
:1004D00000F03DF84FEA4C0E00FA0EF03843D060C1
:1004E000586802280CD191FAA1F7B7FA87F7586932
:1004F000082FC4D200F016F8176A00F01AF810623C
:10050000761C196831FA06F0C1D15868012818BF65
:10051000022805D15468D8688C4341432143516077
:100520000020F0BD91FAA1FCBCFA8CFC91FAA1F17B
:1005300070474FEA8C0CB1FA81F104FA0CFC890087
:1005400027EA0C0788403843704791FAA1FCBCFAAF
:100550008CFC4FEA4C0C05FA0CFC27EA0C0791FACC
:10056000A1FCBCFA8CFC7047F8B5044684B00D467B
:100570002168490849002160684600F0DFFAA86850
:100580006A68029B67682C49B3FBF1F6BF0946EA2B
:1005900087176760DFF8A4C0276A624506D34FF467
:1005A00096714E434FF47A71B6FBF1F6761CBF0993
:1005B00046EA87166245266214D330B902EB42023E
:1005C000B3FBF2F10A0506D008E019214A43B3FB58
:1005D000F2F10A0502D148F2010101E041F40041C3
:1005E000084307E05200B3FBF2F0C0F30B0104290B
:1005F00038BF0420E26912490A401043E061A26852
:100600001048E968024068690A430243A260216811
:10061000286821F01A0101432160226842F001029A
:1006200022602168286921F4806101432160002053
:1006300005B0F0BD0000000040420F00A18601009F
:100640000030FFFF007CFFFF70B5036801225D06EC
:1006500023D40668124C0A684B68264016438A6801
:100660001E43CB6816430A691E434B6916438A69C9
:100670001E43CB6916430A6A1E431643066043684D
:100680004A6923F0040343EA124343600A6AB2F55D
:10069000005F04BF898C01610022104670BD00001C
:1006A0004000FFFF38B5040001D1012032BD002019
:1006B000A06204F15005687820B900212970204615
:1006C00000F0CFF90220687000F021F86268A1689C
:1006D000E06823680A432169024360690A43A1690B
:1006E000024301F40071E0690A43216A0243A06AEF
:1006F0000A4302431A60A1692068090C01F0040151
:1007000041600120002169606870002032BD2068CE
:10071000016821F040010160704730B40EE00268CA
:10072000436802440830DC0744BFA9F10104E31820
:1007300052F8045B43F8045B091FF9D150F8041B1D
:100740000029ECD130BC704770B5049D066800F0FC
:1007500017F8016070BD70B5049D4668DFF8B841B8
:1007600026402D0446EA413605F47F051B02354339
:1007700003F47F432B4302F0FF021A43426070BD33
:10078000DFF8984126401204314302F47F021B0235
:10079000114303F47F43194305F0FF0529437047D4
:1007A00070B504460D46CA21616253226262012679
:1007B00000F08CF8012816D0A168286821F04001CB
:1007C0000143A16000262169A868490B40EA413134
:1007D00021612169686821F4FE0141EA004121613B
:1007E0006FF08001E160FF206062304670BDF8B5B7
:1007F00005460C46164601272CB9A868410607D4C1
:100800000020306004E0A96848065CBF0021316028
:10081000CA226A6253216962284600F057F801280B
:1008200009D032797379B079316800F02FF8FFF789
:100830008BFF00F025F81FE0F8B505460C4616467C
:10084000012734B97078C10603D500F0EF000A30F3
:100850007070CA21696253226A62284600F036F835
:10086000012809D0B2787378F078317800F00EF86A
:10087000FFF771FF00F004F8FF2068623846F2BD10
:1008800027496FF080000860002770470CB1009086
:100890001AE00A270A240A26B0FBF7F74FF00A0CE1
:1008A000B2FBF4F4B3FBF6F60CFB170040EA0710BA
:1008B0000CFB16330CFB1422C0B243EA061342EAC7
:1008C00004120090DBB2D2B22846704781B04FF4D8
:1008D0007A7100910023C1684A0619D44FF0FF31A4
:1008E000C160C268920902F001020DE00D49096879
:1008F000CA0302D50099491E0091C2680099920965
:1009000002F0010201B90123009909B1002AEDD0DA
:10091000184601B070470000C00000FF808080FFD3
:100920000C28004010E000E001490860704700001A
:100930000C00002070B50E4E0446B0680025A0B132
:100940004FF47A710B4AB1FBF0F11068B0FBF1F093
:1009500000F049F848B9102C07D2002221464FF088
:10096000FF3000F023F8746000E00125284670BDD8
:10097000000000200C0000200901020002D42448DD
:1009800081547047234B02F00F021A4402F8041CF2
:100990007047214B19684FF6FF020002114000F426
:1009A000E06008431D4908431860704770B51A4B52
:1009B0001C68C4F302230124C3F10705052D2EBFD3
:1009C0000F2504FA05F56D1E1E1D072E34BF0023EA
:1009D000DB1E2940994004FA03F3BDE870405B1E1A
:1009E0001A401143C8E710B5401EB0F1807F01D313
:1009F000012010BD0A4C60600F214FF0FF30FFF75F
:100A0000BBFF0021A16007202060002010BD000076
:100A100000E400E018ED00E00CED00E00000FA0555
:100A200010E000E0274881B0416841F0004141609A
:100A3000416801F0004100910099026842F0010212
:100A40000260036803F0010300930099426842F0DA
:100A500080524260406800F080500090009801B0E1
:100A6000704710B586B004461422002101A8FFF794
:100A7000D4FC21681448814221D11448816841F492
:100A800080418160816801F4804100910099026891
:100A900042F0020202604FF47041006800F0020070
:100AA0000090022200980A480191029200210391CD
:100AB000032205210591049201A900F0A1F806B0D6
:100AC00010BD000020380240003800401C380240B1
:100AD0000004024062F30F2262F31F42401810F03C
:100AE000030308D0C91A1FD3DB0748BF00F8012D44
:100AF00028BF20F8022D130030B4144615461039D3
:100B000028BF20E93C00FAD8490728BF20E90C009B
:100B100048BF40F8042D890028BF20F8022D48BFA7
:100B200000F8012D30BC7047C91818BF00F8012D1E
:100B3000CB0728BF00F8012D7047000010B5044610
:100B400000F00CF8206000F023F8606000F026F858
:100B5000A060606800F02AF8E06010BD21494A6892
:100B6000012012F00C020BD0042A04D0082A04D071
:100B70000C2A04D004E01C4870471C4870471BE056
:100B80000968490B01F00701491C8840C003704700
:100B90001749184A0968C1F3031104E01449164AB9
:100BA0000968C1F30221515CC84070471049124ADC
:100BB0000968C1F3C221F6E70D48016802680368BD
:100BC0000E48C2F3834201F48031B1F5803F805C6E
:100BD0000CBF064904494143C3F38150401CB1FB9B
:100BE000F0F07047043802400024F40000366E0133
:100BF00008380240180E00080C0F00080C0E000800
:100C00002DE9F84F4FF0000E654A664BDFF89881EA
:100C10004FF00F0982460F4633E0644DAA4514BFDA
:100C2000052504258D40254343F82C50C143146805
:100C300001EA040C7C68E50348BF40EA0C0CC2F8EA
:100C400000C0546801EA040C7C68A50348BF40EA70
:100C50000C0CC2F804C0946801EA040C7C68E5023C
:100C600048BF40EA0C0CC2F808C0D46801EA040C82
:100C700079688C0248BF40EA0C0CC2F80CC00EF137
:100C8000010E396831FA0EF000F08880012000FA78
:100C90000EFC1CEA0100F2D07C68022C18BF122C5A
:100CA0004FEA8E0110D14FEADE040AEB840401F012
:100CB0001C05266A09FA05FB26EA0B06D7F810B0D0
:100CC0000BFA05F5354325624FEA4E040325DAF8A1
:100CD000006097F804B0A540ED430BF0030B2E40E5
:100CE0000BFA04FB4BEA0606CAF800607E68012E88
:100CF00018BF022E03D0112E18BF122E17D1DAF80A
:100D00000860D7F80CB02E400BFA04FB4BEA06063D
:100D1000CAF80860DAF8046026EA0C0C7E68C6F3AC
:100D2000001606FA0EF646EA0C06CAF80460DAF86F
:100D30000C603540BE6806FA04F42C43CAF80C4037
:100D40007C68E4009BD5D8F8004044F00104C8F862
:100D500000404FEA9E0CD8F8005005F001050095C0
:100D600001F00C01009C53F82C5009FA01F425EA1B
:100D700004040F4DAA4508BF00250ED00D4DAA450D
:100D800008BF012509D00C4DAA4508BF022504D093
:100D90000A4DAA457FF441AF032543E7BDE8F18F33
:100DA00000040140080001402038024000100240C9
:100DB000000002400004024000080240000C024013
:100DC00010B50E4A0E49106840F4807010609368A8
:100DD0000C480B409360146804401460116821F4BF
:100DE000802111600021906820F47D009060D16026
:100DF0004FF00060044A106010BD0000003802404F
:100E00000CC0FF88FEFFFEEE08ED00E003040608BC
:100E10000C1018203000000000000000000000004E
:100E2000010203040607080910B50749794418317F
:100E3000064C7C44163404E00A68081D11448847B7
:100E40000146A142F8D110BD0800000028000000B2
:100E5000DFF5FFFF58000000100000200000000038
:100E6000BBF8FFFF10000000880000000000002019
:100E70000000000000F00DF8002801D0FFF7D4FFBB
:100E8000AFF300800020AFF30080FFF73EF900F0E1
:100E900002F80120704700F001B80000074638460C
:100EA00000F002F8FBE7000080B5AFF30080024AD3
:100EB00011001820ABBEFBE7260002007047FEE7DA
:100EC000FEE7FEE7FEE770477047704700F000B8A6
:100ED00002490A68886882180A607047000000208A
:100EE0000148804701480047C10D0008010F000874
:100EF00000000000100000000100000068FF1F005B
:100F0000AFF30080AFF30080FFF7B4FF00000000F4
:100F100001020304FFF7FEBFFFF7FEBFFFF7FEBFAE
:100F2000FFF7FEBFFFF7FEBFFFF7FEBFFFF7FEBFF5
:100F3000FFF7FEBFFFF7FEBFFFF7FEBFFFF7FEBFE5
:100F4000FFF7FEBFFFF7FEBFFFF7FEBFFFF7FEBFD5
:100F5000FFF7FEBFFFF7FEBFFFF7FEBFFFF7FEBFC5
:100F6000FFF7FEBFFFF7FEBFFFF7FEBFFFF7FEBFB5
:100F7000FFF7FEBFFFF7FEBFFFF7FEBFFFF7FEBFA5
:100F8000FFF7FEBFFFF7FEBFFFF7FEBFFFF7FEBF95
:100F9000FFF7FEBFFFF7FEBFFFF7FEBFFFF7FEBF85
:100FA000FFF7FEBFFFF7FEBFFFF7FEBFFFF7FEBF75
:100FB000FFF7FEBFFFF7FEBFFFF7FEBFFFF7FEBF65
:040FC000FFF7FEBF7A
:0400000508000F01DF
:00000001FF
