:020000040800F2
:10000000100400205D1400082514000827140008BF
:10001000291400082B1400082D140008000000000B
:100020000000000000000000000000002F14000885
:1000300031140008000000003314000835140008D3
:10004000891400088D140008911400089514000804
:10005000991400089D140008A1140008A5140008B4
:10006000A9140008AD140008B1140008B514000864
:10007000B9140008BD140008C1140008C514000814
:10008000C9140008CD140008D1140008D5140008C4
:10009000D9140008DD140008E1140008E514000874
:1000A000E9140008ED140008F1140008F514000824
:1000B000F9140008FD1400080115000805150008D2
:1000C000091500080D150008111500081515000880
:1000D000191500081D150008211500082515000830
:1000E000291500082D1500083115000835150008E0
:1000F000391500083D150008411500084515000890
:10010000491500084D15000851150008551500083F
:10011000591500085D1500086115000865150008EF
:10012000691500086D15000871150008751500089F
:100130002DE9FC470400002C01D10120F6E12078D4
:10014000C0076BD5DFF8D005016811F00C01042958
:1001500007D0016811F00C0108290CD10068C00318
:1001600009D5DFF8B0050068800357D5606800281E
:1001700054D10120DAE16068B0F5803F06D1DFF8A4
:100180009405016851F48031016026E06068002820
:100190000AD1DFF88005016831F48031016001681F
:1001A00031F48021016018E06068B0F5A02F0AD119
:1001B000DFF86005016851F480210160016851F4A5
:1001C0008031016009E0DFF84C05016831F48031CD
:1001D0000160016831F480210160606800280ED060
:1001E00000F0BCFA0500DFF82C050068800315D488
:1001F00000F0B4FA401B6528F5D3032096E100F027
:10020000ADFA0500DFF80C050068800306D500F0A4
:10021000A5FA401B6528F5D3032087E120788007E5
:1002200050D5DFF8F404016811F00C0F07D0016815
:1002300011F00C01082914D10068C00311D4DFF8B3
:10024000D4040168890704D52169012901D001205E
:100250006CE1016831F0F801626951EAC2010160A4
:1002600030E0206900281AD00120DFF8C0140860AF
:1002700000F074FA0500DFF89C040168890706D4D1
:1002800000F06CFA401B0328F5D303204EE101680F
:1002900031F0F801626951EAC201016012E0002008
:1002A000DFF88814086000F059FA0500DFF86404EC
:1002B0000068800706D500F051FA401B0328F5D3EB
:1002C000032033E1207800072CD5A069002816D040
:1002D0000120DFF85C14086000F040FA0500DFF848
:1002E00048040068800706D400F038FA401B032851
:1002F000F5D303201AE1012000F0F9F912E0002003
:10030000DFF82C14086000F029FA0500DFF8180463
:100310000068800706D500F021FA401B0328F5D3BA
:10032000032003E12078400740F18E800027DFF8AA
:100330000484D8F80000C0000DD4D8F8000050F0B4
:100340008050C8F80000D8F8000010F080500090ED
:10035000009801200700DFF8E093D9F80000C005FD
:1003600013D4D9F8000050F48070C9F8000000F0F0
:10037000F5F90500D9F80000C00506D400F0EEF943
:10038000401B6528F6D30320D0E0E068012806D1A1
:10039000DFF8A803016851F00101016025E0E06881
:1003A00000280AD1DFF89403016849084900016078
:1003B000016831F00401016017E0E06805280AD106
:1003C000DFF87803016851F004010160016851F021
:1003D0000101016009E0DFF8640301684908490090
:1003E0000160016831F004010160E068002810D06C
:1003F00000F0B4F90500DFF844030068800719D461
:1004000000F0ACF9401B41F289318842F3D303205C
:100410008CE000F0A3F90500DFF8200300688007F6
:1004200008D500F09BF9401B41F289318842F3D393
:1004300003207BE03800C0B2012805D1D8F80000C5
:1004400030F08050C8F80000E06900286DD0DFF877
:10045000C882D8F8000010F00C00082851D0E069DC
:1004600002283BD1DFF8D8A20020CAF8000000F033
:1004700075F90700DFF89C92D9F80000800106D5D5
:1004800000F06CF9C01B0328F4D303204EE0206A6F
:10049000B0F5803F07D1D8F8001031F40031A068E2
:1004A0000143C8F80010D8F8001031F47411206A24
:1004B0000143606A0143C8F800100120CAF8000037
:1004C00000F04CF90500D9F8000080012DD400F0AF
:1004D00045F9401B0328F6D3032027E00020DFF86E
:1004E0006012086000F03AF90500DFF828020068A1
:1004F00080011AD500F032F9401B0328F5D3032000
:1005000014E0E069012801D101200FE0D8F80000D3
:10051000060016F48030216A884204D116F4701067
:10052000616A884201D0012000E00020BDE8F68722
:100530002DE9F04104000D00002C01D101209CE0C8
:10054000DFF80072386810F00700A8420BD2386854
:10055000C008C00028433860386810F00700A8427F
:1005600001D0012089E02078800717D52078400746
:1005700005D5DFF8A401016851F4E061016020783D
:10058000000704D56448016851F460510160624974
:100590000A6832F0F002A06802430A602078C007BF
:1005A00035D56068012805D15A480068800310D409
:1005B000012062E06068022805D156480068800189
:1005C00007D4012059E053480068800701D4012076
:1005D00053E0DFF84481D8F800108908890060688A
:1005E0000143C8F8001000F0B9F80600D8F8000080
:1005F00010F00C006168B0EB810F08D000F0AEF88D
:10060000801B41F289318842F0D3032035E03868FD
:1006100010F0070085420BD23868C008C00028439C
:100620003860386810F00700A84201D0012024E0AB
:100630002078400706D538490A6832F4E062E0685D
:1006400002430A602078000707D53348016831F477
:100650006051226951EAC201016000F010F83A4984
:100660002D4A1268C2F30312895CC8402C49086005
:100670002C48006800F078F80020BDE8F081F0B563
:1006800085B001A83149102200F094F83048008864
:10069000ADF80000002000210022002300251E4E9E
:1006A000346814F00C07042F02D0082F02D01BE08E
:1006B00028481AE001A8C4F38347C05D0300E003A3
:1006C0000CD568463668C6F34046805D0100214877
:1006D00000FB03F0B0FBF1F0020003E01E4800FB5A
:1006E00003F00200100000E00C4805B0F0BD81B03E
:1006F0000B490968C9084FF47A72B1FBF2F101FBAA
:1007000000F1009100BF00994A1E00920029F9D122
:1007100001B07047001002400410024000127A003D
:10072000040000200000002024100240000042428B
:10073000800442421C100240007000402010024021
:1007400060004242002002404C1400083C140008A3
:10075000460C00080024F40000093D000148006830
:10076000704700BF0800002010B504004FF47A70F5
:100770000D490978B0FBF1F00C490968B1FBF0F0C4
:1007800000F0EFF8002801D001200CE0102C09D275
:10079000002221005FF0FF3000F0CEF80448046032
:1007A000002000E0012010BD0C000020040000200B
:1007B00000000020103A07D330B4B1E83810103AE6
:1007C000A0E83810F9D230BC530724BFB1E80810B4
:1007D000A0E8081044BF51F8043B40F8043BD2079E
:1007E00024BF31F8022B20F8022B44BF0B78037092
:1007F0007047121F17D35B0009D151F8043B20F852
:10080000023B1B0C121F20F8023BF6D20BE051F802
:10081000043B00F8013B1B0A20F8023B1B0C121F93
:1008200000F8013BF3D238BF121D521E24BF11F84D
:10083000013B00F8013BF8D8704730B40EE0026885
:10084000436802440830DC0744BFA9F10104E318FF
:1008500052F8045B43F8045B091FF9D150F8041BFC
:100860000029ECD130BC704710B410F00703404CA5
:1008700022684FF6FF010A403E4951EA03210A432C
:10088000226010BC70473A480068C0F302207047ED
:1008900010B4020052B2002A05D40A01364B0400FB
:1008A00064B21A5508E00A01344B040064B214F033
:1008B0000F04234403F8042C10BC704770B40300E9
:1008C00013F00704D4F10700052801D3042001E048
:1008D000D4F10700251D072D01D2002500E0E51EFB
:1008E000012616FA00F0401E0140A94016FA05F54F
:1008F0006D1E2A401143080070BC704710B50400FB
:10090000601EB0F1807F01D301200EE0601E1C4903
:1009100008600F215FF0FF30FFF7BAFF0020194990
:100920000860072018490860002010BD10B50400B9
:100930002000FFF799FF10BD2DE9F04104000D00E4
:1009400016000027FFF79FFF80463200290040462F
:10095000FFF7B4FF0100200040B2FFF799FFBDE8A8
:10096000F08110B504002000FFF7C8FF10BD0000A3
:100970000CED00E00000FA0500E400E018ED00E0F6
:1009800014E000E018E000E010E000E0826832F4DB
:1009900000020A438260704770B410F12C0411F415
:1009A00040735FF44005B5FA85F5EB4014EB830422
:1009B00025681F2611F01F039E40B54312F01F0645
:1009C00011F01F039E403543256070BC7047F0B4A2
:1009D00010F10C0311F000744025B5FA85F5EC40D8
:1009E00013EB84031C684FF47865B5FA85F6072786
:1009F00011F0F87C3CFA06FC17FA0CF7BC4311F036
:100A0000F876B5FA85F5EE4012FA06F634431C6026
:100A1000F0BC704781B084490A6802430A600968E3
:100A200001400091009901B0704780B500F00CF9C9
:100A300000F005F800F0BEF800F04AF8FEE700B557
:100A400095B02822002105A800F010F914220021F9
:100A5000684600F00BF9182200210FA800F006F9F3
:100A6000012005905FF4803006905FF4003107911B
:100A70000121099102210C910D905FF4E0100E907C
:100A800005A8FFF755FB002801D000F0DBF80F2088
:100A9000009002200190002002904FF480600390AB
:100AA0000020049002216846FFF742FD002801D093
:100AB00000F0C8F802200F904FF4004011900FA8EA
:100AC00000F0DEF8002801D000F0BCF815B000BD41
:100AD00030B58DB00822002101A800F0C7F804222B
:100AE0000021684600F0C2F81422002103A800F09B
:100AF000BDF81422002108A800F0B8F84FF40070E7
:100B0000FFF788FF0420FFF785FF40F205500890AB
:100B10000020099008A9454800F0A3F900200190A1
:100B20004FF480700290424C01A9200000F013FAAB
:100B3000002000906946200000F0E4F95FF44020B6
:100B400003905FF4001004900020059002200690AE
:100B50000020079003A9200000F018FA5FF000724F
:100B60004FF400712000FFF717FF07225FF00071BC
:100B70002000FFF72CFF2F4D2A0040F20521200016
:100B8000FFF70AFF072229002000FFF720FF2A4D68
:100B90002A0040F20A212000FFF7FEFE072229006A
:100BA0002000FFF714FF5FF400012000FFF7EEFEC6
:100BB0000DB030BD00B585B01022002101A800F0B5
:100BC00055F81948016851F010010160016811F0F1
:100BD000100100910099016851F020010160016845
:100BE00011F0200100910099016851F004010160A9
:100BF000016811F0040100910099016851F00801A9
:100C00000160006810F00800009000984FF4006048
:100C100001900A4802900020039001A9084800F0C2
:100C2000EFF905B000BD00001810024000080140B7
:100C30000024014002006002100020810000111019
:100C4000000C01407047010280B50748016851F06F
:100C5000100101600320FFF769FE0020FFF784FD0B
:100C600000F00EFB002002BD0020024010B504463B
:100C700010460A460146204600F026FB204610BDDD
:100C80002DE9F8430500002600242878C0076CD51C
:100C90000027DFF80481D8F80000C0000DD4D8F890
:100CA000000050F08050C8F80000D8F8000010F0A4
:100CB00080500090009801200700DFF8E090D9F8FC
:100CC0000000C00513D4D9F8000050F48070C9F8B2
:100CD0000000FFF743FD0600D9F80000C00506D468
:100CE000FFF73CFD801B6528F6D3032052E0DFF8B8
:100CF000B090D9F8000010F440700400002C22D00D
:100D0000686810F4407084421DD0D9F8000030F4B7
:100D10004070040023480121016000210160C9F8EE
:100D20000040E0070FD5FFF719FD0600D9F80000D5
:100D3000800708D4FFF712FD801B41F289318842F9
:100D4000F4D3032026E0D9F8001031F4407168682C
:100D50000143C9F800103800C0B2012805D1D8F805
:100D6000000030F08050C8F800002878800706D5D1
:100D70000D490A6832F44042A86802430A602878A4
:100D8000C00606D508490A6832F480026869024341
:100D90000A600020BDE8F2831C1002400070004091
:100DA000201002404004424204100240F0B410EB14
:100DB000116491FAA1F3B3FA83F391FAA1F5B5FAAC
:100DC00085F526680F27DBB29B009F40BE43EDB23E
:100DD000AB0012FA03F31E432660F0BC7047F0B478
:100DE00010EB116491FAA1F3B3FA83F391FAA1F530
:100DF000B5FA85F526680327DBB29B009F40BE430A
:100E0000EDB2AB0012FA03F31E432660F0BC70474C
:100E1000F0B410EB116491FAA1F3B3FA83F391FAF1
:100E2000A1F5B5FA85F526680427DBB29B009F4043
:100E3000BE43EDB2AB0012FA03F31E432660F0BCD2
:100E4000704710B4C36833EA11230C00240A94FAE3
:100E5000A4F4B4FA84F412FA04F42343C36010BC7B
:100E600070472DE9F04104000D002F683F023F0C50
:100E700097FAA7F0B0FA80F8380030FA08F00028A6
:100E800032D0380030FA08F0C0072AD5B8F1080F80
:100E900005D240F2011010FA08F0060007E05FF0FA
:100EA000011140460838814051F080610E006A68A7
:100EB00031002000FFF77AFF2A6931002000FFF798
:100EC000C0FF6868012802D06868092809D1AA68AB
:100ED00031002000FFF783FFEA6831002000FFF7B0
:100EE00097FF18F10108C7E70020BDE8F081000076
:100EF000C26A32F470020A43C2627047806810F01E
:100F000001007047F8B505000E00002738488542FB
:100F100007D1FFF7F3FF04003648FFF7EFFF044364
:100F200003E03548FFF7EAFF0400002C0ED13068DB
:100F3000002806D0696831F4702130680143696087
:100F400006E0686830F47020686001E00120070066
:100F50003800C0B2F2BD70B504000D0000262000BC
:100F6000FFF7CCFF00280CD1616831F4807168680C
:100F700001436160A16831F4006128680143A16008
:100F800001E0012006003000C0B270BD70B5040061
:100F90000D000026686800282000FFF7AFFF00283A
:100FA00020D16868002808D0616831F46841686819
:100FB0000143A8680143616005E0616831F468415C
:100FC000686801436160A1680C48014028680143DA
:100FD000E868014328690143A16069682000FFF7C0
:100FE00087FF01E0012006003000C0B270BD0000A4
:100FF0000024014000280140003C0140FDFEF1FFBB
:101000002DE9F84703005FF0000E5FF00008086864
:1010100030FA0EF0002800F00D81012010FA0EF0D9
:101020000400086820400500A54240F0008148689F
:10103000002831D0012820D0022825D003283CD018
:1010400011281DD0122823D0DFF8ECC1604523D031
:10105000DFF8E8C160451FD0DFF8E4C160451BD070
:10106000DFF8E0C1604517D0DFF8DCC1604513D080
:10107000DFF8D8C160450FD022E0C86880461FE085
:10108000C868001D80461BE0C8680830804617E02D
:10109000C8680C30804613E08868002802D104201C
:1010A000804609E08868012803D1082080461C6139
:1010B00002E0082080465C6102E000208046FFE7F5
:1010C000B5F5807F01D21E0000E01E1DB5F5807FC2
:1010D00002D25FEA8E0702E0BEF10807BF005FF0B0
:1010E0000F09D6F800C019FA07F03CEA000C18FA0C
:1010F00007F050EA0C0CC6F800C04868C00040F188
:101100009680DFF84C01D0F800C05CF0010CC0F80C
:1011100000C0006810F0010000900098DFF834C1B2
:10112000704680085CF820A01EF00300C0B280006A
:1011300019FA00F93AEA090A4748834202D15FF0F6
:1011400000091FE04548834202D15FF0010919E020
:101150004348834202D15FF0020913E041488342D1
:1011600002D15FF003090DE03F48834202D15FF0F6
:10117000040907E03D48834202D15FF0050901E020
:101180005FF006091EF00300C0B2800019FA00F9F2
:10119000524659EA0202704680084CF820204868FE
:1011A000C00307D53248D0F800C055EA0C0CC0F88F
:1011B00000C006E02E48D0F800C03CEA050CC0F89C
:1011C00000C04868800307D52A48D0F800C055EA17
:1011D0000C0CC0F800C006E02648D0F800C03CEA7D
:1011E000050CC0F800C04868C00207D52248D0F8F6
:1011F00000C055EA0C0CC0F800C006E01E48D0F84C
:1012000000C03CEA050CC0F800C04868800207D561
:101210001A48D0F800C055EA0C0CC0F800C006E02F
:101220001648D0F800C03CEA050CC0F800C01EF11A
:10123000010EECE6BDE8F18700001110000012106D
:1012400000002110000022100000311000003210B8
:10125000181002400800014000080140000C014045
:10126000001001400014014000180140001C014022
:101270000004014004040140080401400C04014042
:1012800081B00E48016851F001010160006810F062
:101290000100009000980A48016851F080510160F7
:1012A000006810F08050009000980649086830F0FF
:1012B000E06050F00070086001B070471810024004
:1012C0001C1002400400014062F30F2262F31F422F
:1012D000401810F0030308D0C91A1FD3DB0748BF1A
:1012E00000F8012D28BF20F8022D130030B4144659
:1012F0001546103928BF20E93C00FAD8490728BF15
:1013000020E90C0048BF40F8042D890028BF20F8D0
:10131000022D48BF00F8012D30BC7047C91818BF16
:1013200000F8012DCB0728BF00F8012D7047000001
:101330000F49086850F0010008600E4A13680E4813
:10134000034013600B680D4803400B60086830F4DD
:1013500080200860106830F4FE0010605FF41F0009
:10136000074908605FF000600649086070470000A8
:1013700000100240041002400000FFF8FFFFF6FEDC
:101380000810024008ED00E010B507497944183113
:10139000064C7C44163404E00A68081D1144884752
:1013A0000146A142F8D110BD08000000180000005D
:1013B0008BF4FFFF10000000B400000000000020CC
:1013C0000000000000F00DF8002801D0FFF7DCFF5E
:1013D000AFF300800020AFF30080FFF726FB00F0A2
:1013E00002F80120704700F001B8000007463846B7
:1013F00000F002F8FBE7000080B5AFF30080024A7E
:1014000011001820ABBEFBE72600020003490A6862
:101410000348007882180A60704700BF0800002067
:101420000C0000207047FEE7FEE7FEE7FEE770478E
:101430007047704780B5FFF7E9FF01BD020304055F
:10144000060708090A0B0C0D0E0F10100000000013
:101450000000000001020304060708090148804754
:1014600001480047311300087D14000810000000F7
:101470000024F4000000000001000000AFF3008031
:10148000AFF30080FFF79EFFFFF7FEBFFFF7FEBF41
:10149000FFF7FEBFFFF7FEBFFFF7FEBFFFF7FEBF80
:1014A000FFF7FEBFFFF7FEBFFFF7FEBFFFF7FEBF70
:1014B000FFF7FEBFFFF7FEBFFFF7FEBFFFF7FEBF60
:1014C000FFF7FEBFFFF7FEBFFFF7FEBFFFF7FEBF50
:1014D000FFF7FEBFFFF7FEBFFFF7FEBFFFF7FEBF40
:1014E000FFF7FEBFFFF7FEBFFFF7FEBFFFF7FEBF30
:1014F000FFF7FEBFFFF7FEBFFFF7FEBFFFF7FEBF20
:10150000FFF7FEBFFFF7FEBFFFF7FEBFFFF7FEBF0F
:10151000FFF7FEBFFFF7FEBFFFF7FEBFFFF7FEBFFF
:10152000FFF7FEBFFFF7FEBFFFF7FEBFFFF7FEBFEF
:10153000FFF7FEBFFFF7FEBFFFF7FEBFFFF7FEBFDF
:10154000FFF7FEBFFFF7FEBFFFF7FEBFFFF7FEBFCF
:10155000FFF7FEBFFFF7FEBFFFF7FEBFFFF7FEBFBF
:10156000FFF7FEBFFFF7FEBFFFF7FEBFFFF7FEBFAF
:08157000FFF7FEBFFFF7FEBF0D
:040000050800147D5E
:00000001FF
